:020000040800F2
:10000000981807202102000859610008E7410008FC
:10001000A5530008C3030008897C00080000000005
:10002000000000000000000000000000D173000884
:100030000D070008000000005F67000875750008E4
:100040003B0200083B0200083B0200083B0200089C
:100050003B0200083B0200083B0200083B0200088C
:100060003B0200083B0200083B0200083B0200087C
:100070003B0200083B0200083B0200083B0200086C
:100080003B0200083B0200083B0200083B0200085C
:100090003B0200083B0200083B0200083B0200084C
:1000A0003B0200083B0200083B0200083B0200083C
:1000B0003B02000889760008957600083B0200089C
:1000C0003B0200083B0200083B0200083B0200081C
:1000D0003B020008117C00083B0200083B020008BC
:1000E0003B0200083B0200083B0200083B020008FC
:1000F0003B0200083B0200083B0200083B020008EC
:100100003B0200083B0200083B0200083B020008DB
:100110003B0200083B0200083B0200083B020008CB
:100120003B0200087D0600083B0200083B02000875
:100130003B0200083B0200083B0200083B020008AB
:100140003B0200083B0200083B0200083B0200089B
:100150003B0200083B0200083B0200083B0200088B
:100160003B0200083B0200083B0200083B0200087B
:100170003B0200083B020008650500080000000083
:100180003B0200083B0200083B0200083B0200085B
:100190003B0200083B0200083B0200083B0200084B
:1001A0003B0200083B0200083B0200083B0200083B
:1001B0003B0200083B0200083B0200083B0200082B
:1001C0003B0200083B020008000000003B02000860
:1001D0003B0200083B0200083B0200083B0200080B
:1001E0003B0200083B0200083B0200083B020008FB
:1001F0003B0200083B020008DFF810D000F0A4F832
:100200000048004739AD0008AFF300809818072078
:1002100030BF72B6704762B6704780F30888704787
:100220000648804706480047FEE7FEE7FEE7FEE790
:10023000FEE7FEE7FEE7FEE7FEE7FEE729760008B9
:10024000F90100082DE9F05F0546002092469B4623
:1002500088460646814640241BE0284641464746DC
:10026000224600F061F853465A46C01A914110D315
:1002700011461846224600F048F82D1A67EB01088F
:100280004F4622460120002100F03FF817EB0009FD
:100290004E41201EA4F10104DFDC484631462A46C7
:1002A0004346BDE8F09F10B5431A934209D2831824
:1002B000881803E010F8011D03F8011D521EF9D241
:1002C00010BD40EA01039B0703D009E008C9121FD3
:1002D00008C0042AFAD203E011F8013B00F8013B00
:1002E000521EF9D210BDD2B201E000F8012B491E16
:1002F000FBD270470022F6E710B513460A460446C3
:100300001946FFF7F0FF204610BD202A04DB203AF3
:1003100000FA02F1002070479140C2F1200320FA58
:1003200003F3194390407047202A04DB203A21FA56
:1003300002F00021704721FA02F3D040C2F12002FE
:100340009140084319467047064C074D06E0E068A7
:1003500040F0010394E8070098471034AC42F6D30C
:10036000FFF74EFFF41D0108141E010870B58C182C
:1003700010F8015B15F0070301D110F8013B2A11B9
:1003800006D110F8012B03E010F8016B01F8016BA6
:100390005B1EF9D12B0705D40023521E0DD401F8A2
:1003A000013BFAE710F8013BCB1A921C03E013F86B
:1003B000015B01F8015B521EF9D5A142D8D30020A0
:1003C00070BDFEE770B4BFF34F8FBFF36F8F194955
:1003D0000020174E0860316841F400313160BFF3EE
:1003E0004F8FBFF36F8F14490860BFF34F8F081F03
:1003F000124943F6FF750068C0F34E3CC0F3C904D0
:1004000005EA4C12204600BF42EA80730B60401E92
:10041000FAD2BCF1010CF3D2BFF34F8F306840F435
:1004200080303060BFF34F8FBFF36F8F70BC704769
:1004300014ED00E050EF00E084ED00E060EF00E03C
:1004400070B514460D4606460C4800F05DFEE1010D
:100450000A4CDFF82CC070010023AA01C4F800C0C8
:10046000E160C4E90130C4E904232046A36100F03F
:10047000C5FE20680168016070BD000024180220DC
:100480000000055010B5806B816C496D022906D0C3
:10049000012180F83510C16C41F04001C16400F0C9
:1004A0003EFE10BD2DE9F84F0F462A4980461646FC
:1004B000086840F48000086008680A15264C4FF070
:1004C000007C00F480000090A4F15000234B002534
:1004D0004FF0040989144FF0010A8464A063880076
:1004E0002360C4F804C04FF4003CC4F82490831186
:1004F000A560C4E90352C4E90AA52563C4E905104F
:10050000C4E9073C204600F0A3FF204600F0E4FFCA
:10051000134984F83450A7B13B4642462046009622
:1005200000F045FF2068016841F0100101600022E1
:100530003920114601F0FEFABDE8F84F392001F0EC
:10054000EDBA01B0334642460348BDE8F04F01F032
:1005500085B8000030380240741802202864024038
:1005600028000550014800F0F3BD000024180220C7
:1005700010B5104C20210E4A00202260C4E9010170
:10058000E06020616061A061204600F037FE2068D5
:10059000C16821F01E01C1602068C16841F00101FD
:1005A000C1602068016841F48041016010BD000015
:1005B00000000550241802202DE9F0471B4C80460E
:1005C0001D4616460F46206820F00100C4F80000C2
:1005D000D4F800C01CF0010FFAD1DFF85490D9F81C
:1005E0000000016821F0010101604FF6FF7003F087
:1005F000C7FF2B4632463946404604F0EFFA2946FB
:10060000304605F0C9FF0021084604F089F904F0DE
:1006100041FDD9F80000016841F001010160206846
:1006200040F001002060BDE8F087000000000550A8
:1006300074180220054806490068026842F0010269
:100640000260086840F001000860704774180220DA
:10065000000005500748016821F0010101600168B0
:1006600011F0010FFBD104480068016821F001017D
:10067000016070470000055074180220194830B41A
:10068000194C1A4B0068DFF868C01A49A04204D917
:10069000194A126802F4006205E0984216D9174A16
:1006A000126802F40062002A04BF30BC70474FF4A5
:1006B0000062A04288BF124803D8984288BF114800
:1006C0000BD902601048406830BC004760458CBFC1
:1006D0004A680A6802F40062E5E760458CBFCA60B8
:1006E0008A60EFE77418022058640240B860024044
:1006F000586002400060024004640240006402400E
:100700000C640240086402404800022070474DF823
:10071000044D0B89D1E9002C097BC4681B0442EA13
:100720000C2243EA01611143C1605DF8044B0020D3
:1007300070474DF8044D0B89D1E9002C097B846882
:100740001B0442EA0C2243EA0161114381605DF817
:10075000044B00207047000030B4D1E9013CD1E9DE
:10076000034543EA0C0CD1E9052301682C434CEA0C
:100770000404DFF81CC044EA422201EA0C0142EA08
:100780004332114341F00801016030BC0020704742
:100790008101F0FF2DE9F0472D4C82B04FF0000AA7
:1007A00089460DF1040806465746A0790025002821
:1007B00015D9CDF80080C0B261884A4600FB06F02A
:1007C0008B08002105F008FB6188BDF80400B0EB40
:1007D000910F04D1A079691C8DB2A842E9D8A07903
:1007E000A84203D102B00020BDE8F087304605F0F2
:1007F0001DF820B117A0394607F01AFC1CE0B9F12A
:10080000FF3F19D0ADF804A0A079002814D900BF8B
:10081000A279BDF80400618806FB02008B08002263
:10082000114605F053FCBDF80400401C80B2ADF841
:100830000400A1798142EBD8781C87B2032FB4D38E
:100840000AA0314607F0F4FB02B00120BDE8F087B2
:10085000CC0402206572726F72206572617365202C
:10086000626C6F636B3A25640D0A0000626164205C
:10087000626C6F636B20636865636B65643A2564C3
:100880000D0A00002DE9FF4F404E924681B01F46F1
:10089000B179B0FBF1F2B0FBF1F801FB120B40466D
:1008A00000F0EAF871890446884203D905B00120B6
:1008B000BDE8F08FB0790025002841D95D451AD3F5
:1008C000CFB171880298081AB8422CBF1FFA87F975
:1008D0001FFA80F9CDF80090B0795346029A04FBD4
:1008E000005108FB005004F099FD00210291CA4418
:1008F000A7EB090706E0B07904FB005108FB0050A4
:1009000004F07AFEB8B14FF0AA300090B079042319
:1009100000216A4600FB04F005F008FCB0790423CE
:1009200000216A4600FB04F0401C05F0FFFB01209B
:1009300000F02EF8B3E7B179681C85B2A942BDD8A2
:10094000B079A8421DD1CC216A4601238DF8001050
:1009500000FB04F0194605F0E9FB404604F066FF91
:1009600072890021002A88BF70690AD930F81130D5
:10097000434502D120F8114003E0491C89B28A4264
:10098000F4D805B00020BDE8F08F0000CC040220B0
:10099000F8B5324C0646608988B1616910F0010FE4
:1009A0004FF6FF70A1F1020118BF21F8020F628912
:1009B000520804D04880521E21F8040FFAD10020BA
:1009C000A08105466089002821D9A079042300214F
:1009D0006A4600FB05F005F03FFA9DF80000FF288D
:1009E0000DD10EB3A079012300216A4600FB05F06A
:1009F000401C05F031FA9DF80000FF2814D018A023
:100A0000294607F015FB60896D1CA842DDD882B22B
:100A1000002A18BF002088BF636918D933F8101066
:100A20008A4211D8E08112E09DF803209DF802006F
:100A3000618900EB0220814202D9616921F81050DE
:100A4000A089401CA081DEE7401C8242E6D8E089F4
:100A5000642834BF02200020F8BD0000CC0402202E
:100A600062616420626C6F636B20696E6465783AC2
:100A700025640D0A000000002DE9F84F2C4F814637
:100A80002C4E78893168401E884228BF08464DD3D5
:100A9000441C4FF0000A09F001054FF0FF3B4FF0F6
:100AA0000108CDF800A012D028EA0400A8420CD119
:100AB000B979601E04236A4601FB00F0002105F0AD
:100AC000CBF90098B0F1FF3F22D0641EECD158461C
:100AD0007C893268611E8A421ED2316009F00105AC
:100AE000CDF800A0F4B100BF28EA0400A8420CD160
:100AF000B979601E04236A4601FB00F0002105F06D
:100B0000ABF90098B0F1FF3F05D0641EECD109E0CD
:100B1000601E01D2DCE7601EB0F1FF3F1CBF3060F9
:100B2000BDE8F88F4FF0FF30BDE8F88F3060AFE7D9
:100B3000CC04022040000220F0B54A4C002683B0CD
:100B40003546A6816089002888BF4FF0AA373CD976
:100B50008DF804600123A079002101AA00FB05F0B3
:100B600005F07AF99DF80400FF282AD1A179012324
:100B700001AA01FB05F00021401C05F06DF99DF86C
:100B80000400FF281DD1284604F050FEB0B136A065
:100B9000294607F04DFA01970423A079002101AA04
:100BA00000FB05F005F0C2FAA0790423002101AA98
:100BB00000FB05F0401C05F0B9FA02E0A089401CDA
:100BC000A08160896D1CA842C2D8A1892AA007F023
:100BD0002FFAA08964283EBF012003B0F0BDC0EB0E
:100BE00040112A48002501EB41010096A0FB0110AD
:100BF000618900294FEA50172CD900BF8DF8046095
:100C00000123A079002101AA00FB05F005F024F9D9
:100C10009DF80400FF2819D1A0790123002101AA21
:100C200000FB05F0401C05F017F99DF80400FF28B3
:100C30000CD1A07902236A46194600FB05F005F0A5
:100C400075FA0098401C0090B84203D060896D1C72
:100C5000A842D3D80120FFF79BFE002818BF02202E
:100C600003B0F0BDCC04022042616420626C6F636B
:100C70006B3A25640D0A0000676F6F645F626C6FEA
:100C8000636B6E756D3A25640D0A00001F85EB518C
:100C900010B504F0F5FD002821D1194C6169002937
:100CA0001CBF00200AF01AFB6089410000200AF0F6
:100CB00055FB606161894900FFF71CFB606970B1F9
:100CC0000120FFF765FE60B10EA007F0B1F9FFF754
:100CD00033FF90B111A007F0ABF9022010BD012045
:100CE00010BD618912A007F0A3F9A18916A007F031
:100CF0009FF9E18919A007F09BF9002010BD0000C1
:100D0000CC040220666F726D6174206E616E642087
:100D1000666C6173682E2E2E0D0A0000666F726D70
:100D20006174206661696C6564210D0A0000000031
:100D3000746F74616C20626C6F636B206E756D3ABA
:100D400025640D0A00000000676F6F6420626C6FFD
:100D5000636B206E756D3A25640D0A0076616C69CF
:100D60006420626C6F636B206E756D3A25640D0AAA
:100D7000000000002DE9FF4F5FEA0309144681B02F
:100D80008A464FF000057CD052480AEB050C41889A
:100D90008379B1FBF4F2C68902FB03F2BCFBF2F2E9
:100DA000964231BF4FF6FF72466906EB4202128847
:100DB0004689964203D805B00120BDE8F08FB1FB0B
:100DC000F4F6A9EB050B06FB03F0BCFBF0F600FB09
:100DD00016C000FB04F0B0FBF1FCB0FBF1F602FB27
:100DE000036701FB1C08A1EB0800B0FBF4F086B21E
:100DF0005E4588BF1FFA8BF606FB04FB1FFA88F1DD
:100E0000019A1FFA8BF3384604F006FE032809D135
:100E10001FFA8BF3019A1FFA88F1384604F0FCFDA3
:100E2000032808D0042818BF002846D005B04FF08A
:100E30000200BDE8F08F1FFA88F1019A5B46384640
:100E4000FFF720FDDFF88C804FF0FF3198F80600A7
:100E5000B7FBF0F0FFF79EFC80B998F80600002180
:100E6000B7FBF0F0FFF796FC834698F80600B7FB57
:100E7000F0F004F0DBFCBBF1000F1ED098F8060088
:100E800000E022E0B7FBF0F74FF0AA30009098F8AE
:100E90000600042300216A4600FB07F005F046F92E
:100EA00098F80600042300216A4600FB07F0401C66
:100EB00005F03CF90120FFF76BFD0198354404FB78
:100EC00006004D450190FFF45FAF05B00020BDE87E
:100ED000F08F0000CC0402202DE9FF4F85B01646AC
:100EE0008A464FF00008089800284FF0FF30049021
:100EF0007CD94D480AEB080C41888379B1FBF6F2A6
:100F0000C48902FB03F2BCFBF2F2944238BF4FF6F5
:100F1000FF7502D3446934F812504289AA4203D8BB
:100F200009B00120BDE8F08FB1FBF6F4089AA2EBFE
:100F30000802039204FB03F094B2BCFBF0F200FB46
:100F400012C000FB06FBBBFBF1F2BBFBF1F005FBA3
:100F5000030001FB12B90290A1EB090080B2B0FBC3
:100F6000F6F0ADF80400A04298BF044604FB06F773
:100F700001A800901FFA89F102984FF0FF32C7F3E1
:100F80008F0304F029FF18B109B00220BDE8F08FEB
:100F9000BDF80400B0EB970F18D1BBB2059A1FFA49
:100FA00089F1029804F0D8FF80B90498A8422ED0A5
:100FB000CC208DF800001C4801236A461946807930
:100FC00000FB05F005F0B2F8049500B3164803994C
:100FD0008CB28179408801FB00F0A0EB0B00B0FBE4
:100FE000F6F080B2ADF80400844200E017E028BFBC
:100FF000044604FB06F71FFA89F1059A02983B465E
:10100000FFF740FC18B109B00320BDE8F08F059848
:10101000A0443844059008988045FFF46AAF09B0B1
:101020000020BDE8F08F0000CC04022030B49446CC
:101030000D4612F0070118BF012101EBDC01047815
:10104000421C11FB0CF0812C1378C2B228BF402B3C
:101050002BD3FF2B18BFFF2C27D07F2B34BFA3F13E
:101060004000A3F14100C0B2A4F18101254CC9B2F6
:10107000BCF10C0FC1EB411303EB811100EB4100FC
:1010800000FB02F329D0BCF1100F2DD0BCF1180FDA
:1010900031D0BCF1200F1CBF30BC7047D4F8210008
:1010A000C118284630BC06F0B3BE002A04BF30BCCD
:1010B000704712F0010F4FF00003A5F1010018BFB7
:1010C00000F8013F510804BF30BC70474370491E0F
:1010D00000F8023FFAD130BC7047D4F80900C118BB
:1010E000284630BC06F094BED4F81100C11828463A
:1010F00030BC06F08DBED4F81900C118284630BCAB
:1011000006F086BE6C14072010B5044600F0DBF82C
:101110000020E06484F8350084F8340010BD704786
:1011200010B509F0D3FC0748012100F00AFC06487D
:1011300006490278521C02700868C16841F001013A
:10114000C16010BD000402404800022024180220A3
:101150002DE9F04104460068274F0426056915F083
:10116000040F0BD04661E06C40F00200E06484F8AC
:101170003560A06C0765A06C00F057F915F0020F00
:101180000DD0216802204861E06C40F00100E0646D
:1011900084F83560A06C0765A06C00F046F915F086
:1011A000100F05D0216810204861204600F08AF811
:1011B00015F0080F05D0216808204861204600F08E
:1011C000F5F815F0010F08BFBDE8F081206801684F
:1011D00011F0020F03D0C16821F01E01C160206828
:1011E0000121C26822F00102C260206841612046EC
:1011F000FFF796FFBDE8F08185040008002804BFD2
:101200000120704770B5044690F83500002804BFEF
:10121000204600F059F8022084F83500206828495B
:10122000026811400160201D626990E80B101043B4
:10123000A26943EA0C03034304F120000B4343EA91
:10124000020C0FC84CEA000C20684CEA010C216B20
:101250004CEA0202D0F800C01A43114341EA0C01E3
:101260000160606810281ED14FF47F40A17F4FF0CD
:101270007F4C257F90FAA0F20302607FB2FA82F2DF
:1012800093FAA3F39CFAACF694F81FC09040B3FA1B
:1012900083F32268B6FA86F699400CFA06F32843DF
:1012A000194308439061206800220121C36843F07C
:1012B0001E03C360E26484F83510104670BD000060
:1012C00007F0E0FF70477047324810B586B00168FC
:1012D00041F001010160006800F0010005902E4816
:1012E000016841F001010160016801F0010105910F
:1012F000016841F002010160016801F002010591FD
:10130000016841F004010160016801F004010591E8
:10131000016841F008010160016801F008010591D0
:10132000016841F0800101600068022101224FF054
:101330000D0C00F0800005904020184C03238DE830
:101340000F106946204600F0CBF94FF46070009012
:101350001348694600F0C4F94FF43C60009011480E
:10136000694600F0BDF9082000900F48694600F07A
:10137000B7F9102069460090204600F0B1F900222C
:101380004E20114600F0D6FB4E2000F0C7FB06B001
:1013900010BD0000343802403038024000000240E6
:1013A0000004024000080240000C0240704770B484
:1013B00085684FF0000C039C802D13D090F83450BA
:1013C000012D02BF022070BC704790F835600125E6
:1013D00080F83450012E18BF4FF0020C08D070BCBA
:1013E000604670474FF480714FF0010C4165F6E79D
:1013F000022580F8355005682E6846F480262E6058
:1014000005682B6103685C608368402B036803BF39
:101410009A600268D16099601CBF0168CA60006868
:10142000016841F001010160D9E790F83510022907
:1014300003D08021416501207047052180F83510D7
:101440000068016821F00101016000207047000080
:10145000002804BF0120704790F83510022904BF0E
:1014600002207047002102682123D2F800C02CF02E
:10147000010CC2F800C00268116002685160026885
:1014800091600268D160026811610268536102686C
:101490000F4B02F0FF0CACF1100C6FF30902A3FB31
:1014A0000CC3DFF830C01B09032B1CF803C0C0F8C5
:1014B0005CC088BF121D3F23826503FA0CF3936062
:1014C000416580F8351080F8341000207047000026
:1014D000ABAAAAAA62CD00082DE9F047044600F0A5
:1014E00039FA002C054604BF0120BDE8F08700262C
:1014F000022084F8346084F835002068016821F007
:10150000010101602068006810F0010F11D000BFD8
:1015100000F020FA401B052806D920216165032030
:1015200084F83500BDE8F0872068006810F0010FEE
:10153000EED1D4E9023CD4E90010D4E90472184396
:101540004CEA0708D4E90653D4E908C740EA080979
:10155000086849EA0202DFF8F8802A4342EA0302F7
:1015600000EA080042EA0C02042F42EA000003D11C
:10157000D4E90B231A431043086023680122606AF0
:101580005969042821F0070140EA010144D1A06A09
:10159000D4F818C00143BCF1000F0AD0BCF5005FBD
:1015A0001CD000281CBF012802282CD0032826D0DC
:1015B00032E020B1012807D002280AD02CE0E06AEE
:1015C00010F0807F1FD127E0E06AB0F1C07F23D107
:1015D00019E0E06A10F0807F15D11DE098B1012874
:1015E00008D002280FD0032804BFE06AB0F1C07F02
:1015F00009D011E0E06A10F0807F04D10CE0E06ACD
:1016000010F0807F08D04FF04000606584F83520EE
:101610004FF00100BDE8F087596120680D49C3B261
:10162000A3F110036FF30900A1FB03310A4B4FEA4A
:10163000111103295B5CE36588BF001D3F21A06594
:1016400099408160666584F835200020BDE8F08708
:101650003F8010E0ABAAAAAA62CD000870B490F84F
:1016600034404FF0000C012C02BF022070BC7047C8
:1016700090F83560012580F834500024012E1CBFFD
:101680004FF0020C80F8344002D070BC60467047C6
:10169000022580F8355044650468256825F48025C6
:1016A0002560046863608368402B036803BF9A6009
:1016B0000268D16099601CBF0168CA600068016857
:1016C00041F001010160E0E731B500F043F9044663
:1016D00000F040F90099001B8842F9D338BD0000A2
:1016E0002DE9F84F8F4E002201274FF003094FF0EC
:1016F0000F0800BF0B6807FA02FC03EA0C036345FE
:1017000040F00A814C68022C18BF122C13D14FEA0A
:10171000D204D1F810B04FEA427A00EB8404256A73
:101720004FEADA6A08FA0AFE0BFA0AFA25EA0E0507
:101730004AEA0505256291F804B04FEA4204D0F860
:1017400000A00BF0030B09FA04F50BFA04FB2AEADC
:10175000050A4BEA0A0AC0F800A0D1F804A0BAF1C1
:10176000010F18BFBAF1020F05D0BAF1110F18BF5F
:10177000BAF1120F19D1D0F808A0D1F80CB02AEAAA
:10178000050A0BFA04FB4BEA0A0AC0F808A0D0F8D5
:1017900004A091F804B02AEA0C0CCBF3001B0BFA5E
:1017A00002FA4AEA0C0CC0F804C0D0F80CC0D1F818
:1017B00008A02CEA050C0AFA04F444EA0C0CC0F860
:1017C0000CC0D1F804C01CF0805F7DD0356822F0D9
:1017D000030C4FEA827445F4804535604FEA147477
:1017E00035680CF1804C0CF5983C05F4804500956B
:1017F00008FA04FADCF80858A0F1804BBBF5003B6E
:1018000025EA0A0508BF4FF0000A48D0A0F1804A37
:10181000BAF5013A08BF4FF0010A40D0A0F1804A62
:10182000BAF5023A08BF4FF0020A38D0A0F1804A58
:10183000BAF5033A08BF4FF0030A30D0A0F1804A4E
:10184000BAF5043A08BF4FF0040A28D0A0F1804A44
:10185000BAF5053A08BF4FF0050A20D0A0F1804A3A
:10186000BAF5063A08BF4FF0060A18D0A0F1804A30
:10187000BAF5073A08BF4FF0070A10D0A0F1804A26
:10188000BAF5083A08BF4FF0080A08D0A0F1804A1C
:10189000BAF5093A0CBF4FF0090A4FF00A0A0AFAE2
:1018A00004FA214C4AEA0505CCF808584D68D4F8EA
:1018B00000C015F4803F2CEA030C18BF4CEA030C5F
:1018C0001A4DC4F800C000E026E04C68D5F800C00E
:1018D00014F4003F2CEA030C18BF4CEA030CDFF8A9
:1018E00050A0C5F800C04C68DAF800C014F4801F9E
:1018F0002CEA030C18BF4CEA030C0E4CCAF800C0CB
:101900004D68D4F800C015F4001F2CEA030C18BF72
:101910004CEA030CC4F800C0521C102AFFF4EAAED3
:10192000BDE8F88F44380240003C0140043C0140CF
:10193000083C01400C3C01400069084018BF0120F0
:1019400070474269514041617047002A08BF09044D
:101950008161704701480068704700001C00022048
:1019600002480168491C0160704700001C00022009
:10197000074810B5016841F400710160052000F0CE
:1019800009F90F2000F006F800F048F8002010BD1B
:10199000003C0240084A10B504464FF47A701268C1
:1019A000B2FBF0F002F06AF800222146501E00F06F
:1019B000C1F8002010BD000018000220DFF858C058
:1019C000F0B443780CF10402111DCCF80030037818
:1019D000002B04BF002010601BD043681360057B00
:1019E000C37A827A90F80DC02F07847B47EA036799
:1019F000C57B47EAC242467A42EA8C42037A42EA0F
:101A0000444242EA0542007842EA062242EA4302A0
:101A100010430860F0BC704798ED00E07047002864
:101A200004BF0120704770B5044690F821001546A8
:101A30000E4628B9002084F82000204600F018F84F
:101A40002068211DFEF788FED4E900023146FEF72A
:101A500070FED4E900022946FEF759FE20680121F4
:101A6000026842F00402026084F82110002070BD78
:101A7000254870B586B0016841F001010160006839
:101A800000F0010005902148016841F00801016063
:101A9000016801F008010591016841F01001016041
:101AA000016801F010010591016841F040010160F9
:101AB00000680121164E002400F040000590032527
:101AC000039540200090CDE9014169463046FFF77B
:101AD00007FE701502210C2204928DE833000D4898
:101AE0006946FFF7FDFD4DF633006946029400900C
:101AF0003046FFF7F5FD4FF4F06000900648694668
:101B0000FFF7EEFD06B070BD3838024030380240B5
:101B1000000C02400018024000100240410900F091
:101B20001F008A00012102F1E02201FA00F0C2F850
:101B300000017047164B30B41B68C3F30223C3F196
:101B4000070CBCF1040F88BF4FF0040C1C1D072CC0
:101B500034BF0023DB1E012404FA0CFC04FA03F555
:101B6000ACF101042140A5F1010C99400CEA0202FC
:101B7000114300284FEA0111B8BF00F00F0000F137
:101B8000E020B4BF80F8141D80F8001430BC70470A
:101B90000CED00E0074900F007004FF6FF030A686C
:101BA0001A4042EA002040F0FD7040F0806008607A
:101BB000704700000CED00E02DE9F84F16468A460C
:101BC0000446FFF7C7FE834694F83800012804BF97
:101BD0000220BDE8F88F01274FF0000884F8387024
:101BE00094F83900012818BF022504D084F8388001
:101BF0002846BDE8F88F4FF00209C4F83C8084F80D
:101C00003990002220215B462046009604F03AFFDE
:101C10000500EBD100225146204604F0A1FDDAF880
:101C20002400002818BF84F83970DFD101225B46F8
:101C300002212046009604F025FF0500D6D1206839
:101C4000C0F80C9084F83970D0E700002DE9F84313
:101C50000446FFF77FFE002C074604BF0120BDE8C5
:101C6000F88394F83800012804BF0220BDE8F88307
:101C70000126002584F8386094F8390038B984F8D2
:101C80003850204600F048F841F28830206420683F
:101C90006FF0FF03A268016803EB022221F4F85100
:101CA00011430160206C002220213B460090204619
:101CB00004F0E8FE50BB2168D4E907C32779E26845
:101CC000D1F8008042EA0C0C124A43EA07634CEA5E
:101CD000030328F0D00C2CF07F4C43EA0C030B607C
:101CE0002168D4E9053C278AD1F8048043EA0C0333
:101CF00008EA020242EA07421A434A6021680A6877
:101D000042F001020A60E56384F8396084F83850D3
:101D1000BDE8F883FEF8E0FF214830B587B00168E0
:101D200041F002010160006800F0020005901D48CA
:101D3000016841F002010160016801F002010591B2
:101D4000016841F020010160006803240221164D62
:101D500000F020000590402001220A2304938DE822
:101D6000170069462846FFF7BBFC0021CDE90214A5
:101D700020020E4C694600902046FFF7B1FC04207B
:101D800000900921284604916946FFF7A9FCC0206C
:101D9000694600902046FFF7A3FC07B030BD000065
:101DA000383802403038024000040240001402403B
:101DB0002DE9F84F15468A460446FFF7CBFD8146CC
:101DC0002068816994F8382000F12006012A04BFB8
:101DD0000220BDE8F88F01274FF0000884F8387022
:101DE00094F83920012A18BF022003D084F83880E3
:101DF000BDE8F88FBAF1000FC4F83C8035D022223C
:101E000084F839200269521C62860269521C2286BB
:101E1000C4F82CA0426922F0406242F08062426124
:101E200020688161608E90B101224B4606212046D8
:101E3000009504F027FEA8B93178E06A421CE262FE
:101E40000170608E401E6086608E0028ECD10122F9
:101E50004B4602212046009504F014FE10B922687A
:101E60000221D16084F83970C0E7E16B012041F0B4
:101E70000801E163BAE700002DE9F84F15468A46EC
:101E80000446FFF767FD94F8381081462068012961
:101E900000F1200604BF0220BDE8F88F01274FF0B3
:101EA000000884F8387094F83910012918BF02200E
:101EB00004D000BF84F83880BDE8F88FBAF1000F75
:101EC000C4F83C8031D0122184F839100169491CD2
:101ED00061850169491C2185C4F824A0416921F06C
:101EE00040614161608D90B101224B460421204642
:101EF000009504F0C7FDA8B9606A411C61620078D2
:101F00003070608D401E6085608D0028ECD101220C
:101F10004B4602212046009504F0B4FD10B922681A
:101F20000221D16084F83970C4E7E16B012041F0EF
:101F30000801E163BEE700002DE9F84F0446007890
:101F4000DFF824844FF0000910F0010FCA4610D0CA
:101F5000D8F8000020F40000C8F80000D8F800000D
:101F6000616B0843C8F80000606B002808BF4FF0A1
:101F70000109FE4D206810F4002F10D0E06B296895
:101F800021F4401108432860E06BB0F5801F08BFC2
:101F90004FF0010903D0002808BF4FF0010A206864
:101FA00010F4801F10D0206C296821F440010843F0
:101FB0002860206CB0F5800F08BF4FF0010903D0F6
:101FC000002808BF4FF0010A206810F0807F18BF7A
:101FD0004FF0010910F0200F60D0E548016841F092
:101FE000805101600068E34F00F080500090386835
:101FF00040F480703860FFF7ADFC0646386810F496
:10200000807F09D1FFF7A6FC801B642800F24D8376
:10201000386810F4807FF5D0D74F386810F44070DE
:1020200028D0218E01F44071814223D0386839686C
:1020300020F4407041F480313960396821F48031F6
:1020400039603860386810F0010F13D0FFF782FC58
:102050000646386810F0020F08BF41F2883B09D1EC
:10206000FFF778FC801B584500F21F83386810F09A
:10207000020FF5D0206B4FF4407181431CBFD8F89C
:10208000000020F4F81000F0F58000BFC8F8000050
:10209000208E3968C0F30B0008433860207810F0B8
:1020A000100F07D0286820F0807028602868A16B86
:1020B000084328602188B14811F4804F05D0616E33
:1020C000026822F4403211430160218811F4004F6C
:1020D00005D0A16E026822F44022114301602168FC
:1020E00011F4803F05D0E16E026822F440121143E2
:1020F0000160216811F4003F05D0216F026822F4CD
:10210000400211430160217811F0400F05D0616C4D
:10211000026822F0030211430160217811F0800F60
:1021200005D0A16C026822F00C02114301602188E5
:1021300011F4807F05D0E16C026822F03002114377
:102140000160218811F4007F05D0216D026822F022
:10215000C00211430160218811F4806F05D0616DC8
:10216000026822F4407211430160218811F4006F6B
:1021700005D0A16D026822F44062114301602188FC
:1021800011F4805F05D0E16D026822F440521143E2
:102190000160218811F4005F05D0216E026822F4ED
:1021A000404211430160216811F4800F05D0A16FF6
:1021B000026822F0806211430160216811F4001F5F
:1021C0000BD0E16F026822F0006211430160E16F01
:1021D000B1F1006F08BF4FF0010A216811F0080F3C
:1021E00018BF4FF0010A11F4802F05D0616F02680B
:1021F00022F0407211430160216811F4000F06D0F3
:10220000D4F88010026822F08052114301602168E6
:1022100011F0806F06D0D4F88410026822F00052CA
:1022200011430160206810F0006F06D0D4F88800D8
:10223000296821F0007108432860206810F0805F51
:1022400006D0D4F88C00296821F08061084328600A
:10225000B9F1010F47F6C0794FF440364FF070677F
:102260004FF0E0481CBF2068B0F1007F0DD000F0B7
:102270002CB900BFD8F8001020F4407020F0704056
:1022800021F4F81141EA000000E73D48016821F01F
:1022900080610160FFF75EFB83463948006810F0FB
:1022A000006F0BD0FFF756FBA0EB0B00642800F289
:1022B000FC813348006810F0006FF3D1207810F0F3
:1022C000010F34D0606B90BB2E4A106896FAA6F1CD
:1022D000126897FAA7F300F44030D4F804C0B1FABA
:1022E00081F199FAA9FBC84002F07061B3FA83F258
:1022F00096FAA6FEBBFA8BF3BEFA8EFBD14097FA94
:10230000A7FE0CFA03F2BEFA8EF3D4F808C000FA66
:102310000BF098FAA8FEDFF86CB010439940BEFAB3
:102320008EF208430CFA02F10843CBF80000206853
:1023300010F4002F03D0E16BB1F5801F06D010F42C
:10234000801F4CD0206CB0F5800F48D10D49086833
:1023500096FAA6F2096800F44030B2FA82F296FAD0
:10236000A6FC99FAA9FB0FE0083802408C3802401D
:1023700040380240007000407038024090380240FF
:102380000038024084380240D04097FAA7F26368D0
:10239000BCFA8CFCB2FA82FEBBFA8BFB98FAA8F26C
:1023A00000FA0CF003FA0BF301F0E041D4F80CB0A2
:1023B000B2FA82F298FAA8FCD1401843C04BBCFA9A
:1023C0008CFC0BFA0EF2104301FA0CF10843186072
:1023D0002868616A20F01F02481E104328602068A8
:1023E00010F0807F33D0B64A106897FAA7F11268D0
:1023F00096FAA6FB00F07060B1FA81F199FAA9FC97
:10240000C8400090BBFA8BFB2169BCFA8CFC606869
:1024100098FAA8F302F0E04201FA0BF100FA0CF08E
:1024200097FAA7FB40EA010E0098B3FA83F3A44998
:10243000BBFA8BFC98FAA8FBDA4000FA0CF3BBFA63
:102440008BF04EEA030302FA00F01843086020689C
:1024500010F0007F20D099FAA9F1606896FAA6F3EF
:10246000D4F808E0D4E903C2B1FA81F1B3FA83F3F6
:1024700000FA01F197FAA7FB91489A40BBFA8BF357
:1024800098FAA8FB11430CFA03F2BBFA8BF3114341
:102490000EFA03F2114301608A48016841F080613D
:1024A0000160FFF757FA83468648006810F0006F16
:1024B0000BD100BFFFF74EFAA0EB0B0064287CD8CD
:1024C0008048006810F0006FF4D0BAF1000F75D0AA
:1024D000DFF8F0A1DAF8000020F08050CAF8000020
:1024E000FFF738FA8346DAF8000010F0005F0AD0F0
:1024F000FFF730FAA0EB0B0064285ED8DAF8000092
:1025000010F0005FF4D1206810F4002F01D0E16BCF
:1025100021B110F4801F3CD0206CD0BB6A49086800
:1025200096FAA6F2096800F44030B2FA82F26369C2
:1025300096FAA6FCD04099FAA9FB97FAA7F2BCFA42
:102540008CFCB2FA82FEBBFA8BFB98FAA8F200FA76
:102550000CF003FA0BF301F0E041D4F818B0B2FA32
:1025600082F298FAA8FCD1401843574B0BFA0EF2AE
:10257000BCFA8CFC104301FA0CF1084318606FF0B0
:10258000FF0B2868A16A20F4F8500BEB01210843E7
:102590002860206810F4001F39D0E06FB0F1006FA0
:1025A00035D14949086897FAA7F3096898FAA8F25B
:1025B00099FAA9FCB2FA82F201E076E07DE096FA9F
:1025C000A6FB00F07060B3FA83F3BBFA8BFED4F87D
:1025D00020B0D8406369BCFA8CFC0BFA0EFB97FA6A
:1025E000A7FE03FA0CF301F0E041BEFA8EFC98FA64
:1025F000A8FED14000FA0CF243EA0B0B324BBEFAB4
:102600008EF04BEA020201FA00F0104318602078C5
:1026100010F0080F36D02C480268016896FAA6F32D
:1026200096FAA6FCD4F814B001F44031B3FA83F35F
:1026300097FAA7F699FAA9F9D94002F07062B6FAAA
:1026400086F3B9FA89F6DA40BCFA8CFC0BFA06F389
:1026500097FAA7F701FA0CF6B7FA87F1D4F81CC07D
:1026600098FAA8F702FA01F1B7FA87F2334319434F
:102670000CFA02F2114301602868E16A20F440304C
:1026800008432860DAF8000040F08050CAF80000E3
:10269000FFF760F90446DAF8000010F0005F0CD193
:1026A000FFF758F9001B642802D90320BDE8F88F12
:1026B000DAF8000010F0005FF2D00020BDE8F88FDB
:1026C0008438024000380240883802402DE9F04743
:1026D000DFF8E48106460F46D8F8000000F00F004E
:1026E000B8420CD2D8F8000020F00F003843C8F8E8
:1026F0000000D8F8000000F00F00B84272D1307826
:102700006E4D10F0020F05D0B068296821F0F0017D
:1027100008432860307810F0010F50D07068684985
:10272000012821D00968022823D011F0020F59D0C6
:10273000296821F0030108432860FFF70BF90446DC
:10274000706841F28839012817D00228286800F003
:102750000C0022D000B300BFFFF7FCF8001B484577
:1027600029D90320BDE8F087096811F4003FDFD1C3
:1027700038E011F0007FDBD134E0286800F00C0075
:1027800004281CD0FFF7E6F8001B4845E9D8286864
:1027900000F00C000428F5D111E008280FD000BF8C
:1027A000FFF7D8F8001B4845DBD8286800F00C007C
:1027B0000828F5D103E0286810F00C0FCCD1D8F828
:1027C000000000F00F00B8420FD9D8F8000020F048
:1027D0000F003843C8F80000D8F8000000F00F00E0
:1027E000B84202D00120BDE8F087307810F0040F25
:1027F00005D0F068296821F4E0510843286030785A
:1028000010F0080F06D03069296821F4604141EAD0
:10281000C00028602B48296811F00C0138D02A4BE1
:10282000042908BF184633D0082931D1274947F673
:10283000C07C0A680C6802F03F0214F4800F0CD0D0
:102840000868B3FBF2F29CFAACF300EA0C00B3FAAE
:1028500083F3D84002FB00F20CE00B68B0FBF2F00F
:102860009CFAACF203EA0C03B2FA82F223FA02F207
:1028700000FB02F208684FF4403393FAA3F100F42E
:102880004030B1FA81F1C840401C4000B2FBF0F08A
:102890002968F02292FAA2F201F0F001B2FA82F273
:1028A000D1400B4A515CC8400A4908600F20FFF72D
:1028B00071F80020BDE8F087003C02400838024073
:1028C000003802400024F40040787D0104380240C2
:1028D0004ACD00081800022008484FF4E052016871
:1028E00092FAA2F2064801F4E051B2FA82F2D14023
:1028F000044A0068515CC840704700000838024034
:10290000180002205ACD000808484FF460420168C0
:1029100092FAA2F2064801F46041B2FA82F2D14082
:10292000044A0068515CC840704700000838024003
:10293000180002205ACD000821492248096811F0E8
:102940000C0108BF7047204B042904BF184670478C
:10295000082918BF70474DF8044D47F6C0711B4A4F
:10296000D2F800C014680CF03F0C14F4800F0BD0A8
:102970001068B3FBFCF391FAA1FC0840BCFA8CF19F
:10298000C84003FB00F00AE01368B0FBFCF091FACA
:10299000A1FC1940BCFA8CF3D94000FB01F011688E
:1029A0004FF440335DF8044B93FAA3F201F4403145
:1029B000B2FA82F2D140491C4900B0FBF1F07047F5
:1029C000083802400024F40040787D0104380240B9
:1029D0002DE9F84FF74F05460078A7F1040810F0ED
:1029E000010FA8F1040659D0386800F00C00042843
:1029F00009D0386800F00C0008280DD1D8F8000084
:102A000010F4800F08D0306810F4003F46D068689A
:102A1000002800F0CB8141E06868B0F5803F04BF3A
:102A2000306840F480300AD010B1B0F5A02F11D03A
:102A3000306820F480303060306820F480203060CE
:102A40006868D0B1FEF786FF0446306810F4003F96
:102A500008D023E0306840F480203060306840F4D3
:102A60008030ECE7FEF776FF001B642800F2378128
:102A7000306810F4003FF5D010E0FEF76BFF04461D
:102A8000306810F4003F09D0FEF764FF001B642893
:102A900000F22581306810F4003FF5D1287810F05D
:102AA000020F5CD038684FF0F80910F00C0F18D006
:102AB000386800F00C00082804BFD8F8000010F4B3
:102AC000800F0ED0E8680028306834D040F0010054
:102AD0003060FEF73FFF0446306810F0020F15D05B
:102AE0001DE0306810F0020F1CBFE868012840F0BC
:102AF0005D812869316899FAA9F2B2FA82F221F06F
:102B0000F80100FA02F041EA000012E0FEF722FFAD
:102B1000001B02287ED8306810F0020FF6D0296919
:102B2000306899FAA9F2B2FA82F220F0F8009140E6
:102B30000843306013E020F001003060FEF70AFF28
:102B40000446306810F0020F09D000BFFEF702FF04
:102B5000001B02285ED8306810F0020FF6D12878EA
:102B600010F0080F34D0DFF8509268690028D9F8C7
:102B7000000016D040F00100C9F80000FEF7EAFEA0
:102B80000446D9F8000010F0020F21D1FEF7E2FE52
:102B9000001B02283ED8D9F8000010F0020FF5D033
:102BA00016E020F00100C9F80000FEF7D3FE04464D
:102BB000D9F8000010F0020F0AD000BFFEF7CAFEDD
:102BC000001B022826D8D9F8000010F0020FF5D11A
:102BD000287810F0040F69D07848016841F08051DE
:102BE00001600068DFF8D89100F080500090D9F8BB
:102BF000000040F48070C9F80000FEF7ABFE044608
:102C0000D9F8000010F4807F0CD100BFFEF7A2FEBF
:102C1000001B00E063E0642861D8D9F8000010F4DC
:102C2000807FF3D0A868674C012804BF206840F07B
:102C3000010009D008B1052813D0206820F0010058
:102C40002060206820F004002060A86841F2883AE3
:102C5000D0B1FEF77FFE8146206810F0020F08D049
:102C600024E0206840F004002060206840F001006B
:102C7000EAE7FEF76FFEA0EB090050452FD8206869
:102C800010F0020FF5D011E0FEF764FE81462068D7
:102C900010F0020F0AD000BFFEF75CFEA0EB0900A7
:102CA00050451CD8206810F0020FF5D1A869E8B390
:102CB000396801F00C01082978D00228306820F02A
:102CC000807030600ED0FEF745FE0446306810F08C
:102CD000007F68D0FEF73EFE001B02285FD903206C
:102CE000BDE8F88FFEF736FE0446306810F0007F2E
:102CF00009D000BFFEF72EFE001B0228EFD8306877
:102D000010F0007FF6D1D5E909C147F6C0704FF049
:102D1000FF324FF4403790FAA0F497FAA7F002EB95
:102D200051074FF07069B4FA84F100E03BE0D5E957
:102D30000732B0FA80F00CFA01FA07FA00F043EA21
:102D4000020199FAA9F74FF0E0444AEA0003D5E9F5
:102D50000BC294FAA4F4B7FA87F019430CFA00F006
:102D6000B4FA84F3084302FA03F10843C8F80000F8
:102D7000306840F080703060FEF7ECFD044630684B
:102D800010F0007F0FD100BFFEF7E4FD001B02280A
:102D9000A5D8306810F0007FF6D004E006E0306877
:102DA00010F0007F96D10020BDE8F88F0120BDE82B
:102DB000F88F000008380240743802404038024062
:102DC00000700040703802402DE9F00F90F820208C
:102DD00081F85620828CA1F85420826A120E4FEAA4
:102DE000921C81F800C0C2F3830302F003024B700F
:102DF0008A70826A120CCA70028D120A0A7190F8E7
:102E000028204A714FF6FF79C26A120E09EA0212AF
:102E1000CA80CB88C26AC2F307424FEA121C02F092
:102E20000F0243EA0C03CB800A720023828DC2F3A7
:102E300007224FEAD21C81F809C0C2F38014C2F302
:102E40004015C2F300168C72CD720E734B734FF0A7
:102E5000010C046A9846002C18BF012C00F0B780C2
:102E6000022C18BF4FF0290800F0F480C2F3801440
:102E70004C769206520E8A7690F830208C7ED509D8
:102E80002C438C7602F07F02CA76426B120ED40974
:102E90000C77C2F34115C2F3820692074D778E7705
:102EA000120FCA77CC7F426BC2F3074244EA9214F6
:102EB000CC77C2F3401502F0010281F8205081F86E
:102EC000213081F82220828EC2F30722D30981F8B3
:102ED0002330C2F38014C2F34015C2F30016C2F3CC
:102EE000810702F0030281F8244081F8255081F81F
:102EF000266081F8277081F8282090F83420520845
:102F000081F8292081F82AC0826B120E81F82C20CA
:102F1000826B120C09EA0222CA85CB8D028FC2F3A2
:102F200007221A43CA8590F8382012060A630B6BF1
:102F3000C26B120E43EA02420A630B6BC26BC2F30E
:102F4000074243EA02220A630B6B828FC2F3072215
:102F50001A430A6390F83C2081F83420026C120E68
:102F600081F83520026C120C12068A638B6BB0F864
:102F70004020C2F3072243EA02428A638B6B90F837
:102F8000402043EA02228A638B6B426C43EA12625E
:102F90008A6391F83C30426CC2F30742150743EA5A
:102FA000121281F83C202B0DCB87CB8FB0F8442038
:102FB000C2F307221A43CA8790F84400400881F8F8
:102FC000400081F841C04046BDE8F00F70479207CD
:102FD000120D0A610C6990F82C2044EA82020A6101
:102FE0000C69026B120E44EA92140C61C2F3C20621
:102FF00002F007020E754A75026BC2F3074294078E
:1030000055098D75C2F38202CA75640F0C760C7E69
:10301000028EC2F3072244EAD2140C760C690E7EAB
:103020000D7AB61C0CFA06F70CFA05F5641C0D6552
:103030004FEAE77AA4FB076B03FB07B704FB0A74AC
:10304000A6FB057A04FB05A406FB0344C1E9127440
:103050000CE700BF90F82C204FF400749206920AFF
:103060000A610D69026B120E45EA02220A610D69BE
:10307000026BC2F307422A430A610A69068E551C95
:10308000C6F3072243F10006F7046E0BED048D64CE
:103090003E43C1E91364E9E62DE9F34F8DB00446E0
:1030A00000258DF82850057700F0F2F9762000957C
:1030B0002B462A462946CDE90150206803F0CFFE71
:1030C000A8468DF80050C1462068416821F48071FF
:1030D0004160206803F0D8FE0120FEF7F5FA206871
:1030E0004FF48067416841F480714160029502A904
:1030F00003950495CDE90557206803F0CCFE2368BD
:103100000022B801596BC1F3C01104E0596B401E95
:10311000C1F3C01111D00029F8D000281CBF40F223
:10312000FF50986309D000BF8DF800209DF8000083
:103130004FF0040B00287DD101E00322F4E70821C1
:103140004FF4D57040260496CDE90201206802A90B
:1031500003F0A1FE21682920B3024A6B12F0450F4B
:1031600007D14A6BA3F1010312F0450F01D1002BE7
:10317000F7D14A6BC2F3800203B11AB10320C1F840
:1031800038B005E04A6B12F0400F1CBF00208E6380
:103190008DF800009DF8000018B9012020624FF062
:1031A00080494FF0370A02A9CDE9025A206803F09E
:1031B00072FE3721204603F089FE8DF800009DF84D
:1031C0000000002804BF49F4801949F000494ED19D
:1031D000CDE9025ACDE90465069702A9206803F0FB
:1031E0005AFE3721204603F071FE8DF800009DF84D
:1031F0000000F8B92920CDF80890CDE90306CDE903
:103200000557206802A903F046FE20680022416BA2
:1032100011F0450FFBD0416B11F0040F07BF40F2D6
:10322000FF5181630322C0F838B08DF800209DF86B
:10323000000000E01BE0D0B92068002103F008FE88
:10324000C10F08F1010803D14FF6FF718845BFD3C4
:103250004FF6FF71884505D31B208DF800009DF8BF
:10326000000006E010F0804F1CBF022020629DF895
:1032700000008DF828009DF82800002874D14FF038
:103280000108ADF804802068002603F0DDFD002869
:1032900016BF206A2526042865D04FF002004FF0A3
:1032A000C001CDE90615089704A9CDE904502068AE
:1032B00003F0F1FD20680026416B11F0450FFBD0B3
:1032C000416B11F0040F7DD1416B11F0010F7AD1E8
:1032D00040F2FF51816320684FF0000103F0B8FD18
:1032E000A0630421206803F0B3FDE0630821206897
:1032F00003F0AEFD20640C21206803F0A9FD60649A
:10330000206A002818BF012803D0062818BF022809
:1033100047D14FF040014FF00300CDE9050120688F
:1033200004A903F0B8FD216800260DF104094FF04F
:10333000030A486B10F0450FFBD0486B10F0040FE8
:103340001CBF0326C1F838B06BD1486B10F0010FD9
:103350001CBF4646C1F8388063D1084603F071FDB2
:10336000504502D010265CE060E0216840F2FF503A
:1033700088630021206803F06BFD10F4604F04BFE8
:10338000000CA9F800000CD010F4005F18BF132641
:1033900047D110F4804FE5D110F4004F18BF0F262D
:1033A0003FD1206A04283CD0BDF8040009226062A5
:1033B000C02306930104CDE90412206804A903F098
:1033C0006AFD01E00AE011E020680026416B11F07F
:1033D000450FFBD0416B11F0040F03D00326C0F85A
:1033E00038B01EE0416B11F0010F03D04646C0F823
:1033F000388016E040F2FF5181632068002103F01D
:1034000027FDA0620421206803F022FDE06208216C
:10341000206803F01DFD20630C21206803F018FDD7
:1034200060638DF828609DF8280020B19DF8280081
:103430000FB0BDE8F08F0E992046FFF7C5FC8DF860
:1034400028009DF82800A0B90E980722B0F8540073
:10345000CDE9045701040191402001A9CDE90220E2
:10346000206803F018FD0721204603F02FFD8DF89A
:103470002800D4E90401A2690292CDE9000194E890
:103480000F0003F0ECFC9DF828000FB0BDE8F08FB2
:103490001D484DF804ED87B0016841F400610160FA
:1034A000006800F4006005901848016841F480014C
:1034B0000160016801F480010591016841F0040197
:1034C0000160016801F004010591016841F0080103
:1034D00001600068022101224FF00C0C00F008008E
:1034E000059003234FF4F8508DE80F100848694603
:1034F000FEF7F6F80420009006486946FEF7F0F85B
:1035000007B05DF804FB0000443802403038024048
:1035100000080240000C02402DE9F04F91B0044633
:10352000006816460D464FF00008DDE91A79C0F82C
:103530002C80206A022803D10702500A40EAC356B1
:103540000097402010220101CDE90120CDE903813F
:103550002068694603F09FFC1021204603F0B6FC6A
:1035600000281CBF11B0BDE8F08F09FB07F0012354
:103570004FF0020A4FF0FF319022CDE90610CDE95D
:10358000082ACDE90A83206806A903F043FCB9F1B3
:10359000010F8CBF1220112000960190694620680F
:1035A00003F079FCB9F1010F23D91221204603F071
:1035B0008DFC07001CBF11B0BDE8F08F2068406B88
:1035C00010F4957F3AD12068406B10F4004F18BF7B
:1035D000002608D0206803F05BFC45F82600761C26
:1035E000082EF7D320352068406B10F4957FEAD081
:1035F00024E01121204603F069FC07001CBF11B034
:10360000BDE8F08F40F22A4B2068406B10EA0B0FA8
:1036100014D12068406B10F4004F18BF002608D06A
:10362000206803F035FC45F82600761C082EF7D3F9
:1036300020352068406B10EA0B0FEAD02068406B01
:1036400010F4807F18BFB9F1010F19D9206A002842
:103650001CBF0128022813D14FF00C024FF040008C
:10366000CDE90E084FF480611091CDE90C822068FD
:103670000CA903F010FC0C21204603F027FC0746A0
:103680002168486B10F0080F1CBF0822042003D0EB
:103690008A6311B0BDE8F08F486B10F0020F1FBFB6
:1036A0005046C1F838A011B0BDE8F08F486B10F05B
:1036B000200F1ABF202206204FF0FF36E8D104E089
:1036C00003F0E6FB761E45F8040B2068416B11F40D
:1036D000001F18BF002EF3D1014640F2FF5088634F
:1036E00011B03846BDE8F08F2DE9F04F0546006A6D
:1036F00000240F4603288BB002BF27200BB0BDE883
:10370000F08F00281CBF0128022850D1B7F5805F38
:1037100008BF27244BD0B7F5006F4FF037084FF4A0
:10372000806A4FF040094FF0060B4FF0000604D0BE
:10373000002F18BF262430D06EE00096002101969D
:10374000286803F085FB10F0007F2FD169462846DA
:1037500003F048FC88BB019810F4802F60D0A88C3F
:1037600004A9CDE90696CDF820A00004CDE904080F
:10377000286803F090FB3721284603F0A7FBE0B947
:103780000220CDE9040B286804A903F084FB06217C
:10379000284603F09BFB80B933E004960021059690
:1037A000286803F055FB10F0007F01D00E2433E0B1
:1037B00004A9284603F016FC08B104462CE005983D
:1037C00010F4803F2CD0A88C06A9CDE90896CDF83E
:1037D00028A00004CDE90608286803F05CFB372127
:1037E000284603F073FB0028E7D1CDE9066B286873
:1037F00006A903F050FB0621284603F067FB0028CA
:10380000DBD1D5E905C0EB68D5E901120097CDE918
:1038100001C0286803F023FB0BB02046BDE8F08F01
:103820002524F9E72DE9F04F93B04FF0000A044644
:1038300017460D465646DDE91C898DF818A000682C
:10384000C0F82CA0206A022804D1500A4FF4007856
:1038500040EAC357CDF81C80102040218201CDE9F9
:103860000801CDE90AA2206807A903F014FB102182
:10387000204603F02BFB00281CBF13B0BDE8F08FDF
:10388000B9F1010F8CBF192018200797089007A9DC
:10389000206803F000FBB9F1010F04D9192120467B
:1038A00003F014FB03E01821204603F00FFB00286F
:1038B0001CBF13B0BDE8F08F09FB08F801234FF0DF
:1038C000FF3200209021CDE91003CDE90E10CDE9A3
:1038D0000C2820680CA903F09DFA2068B9F1010FAB
:1038E00035D9406B10F48D7F68D12068406B10F49F
:1038F000804F26D0A8EB0600202828BF002716D22C
:1039000010F0030F0EBF4FEA900A800800F1010A81
:103910000027BAF1000F14D92068294603F0D0FA25
:103920002D1D7F1CBA4506F10406F5D809E0206874
:1039300005EB870103F0C4FA7F1C082FF7D320356D
:1039400020362068406B10F48D7FCED036E0406B7F
:1039500040F21A4A10EA0A0F30D12068406B10F486
:10396000804F26D0A8EB0600202828BF002716D2BB
:1039700010F0030F0EBF4FEA900B800800F1010B0F
:103980000027BBF1000F14D92068294603F098FAEC
:103990002D1D7F1CBB4506F10406F5D809E0206803
:1039A00005EB870103F08CFA7F1C082FF7D3203535
:1039B00020362068406B10EA0A0FCED02068406B9A
:1039C00010F4807F18BFB9F1010F1AD9206A0028BE
:1039D0001CBF0128022814D14FF00C034FF0000047
:1039E0004FF480624FF04001CDE901030592CDE92B
:1039F0000310206801A903F04EFA0C21204603F0C1
:103A000065FA2168486B10F0080F1CBF08220420DB
:103A100003D08A6313B0BDE8F08F486B10F0020F3B
:103A20001FBF0220886313B0BDE8F08F486B10F011
:103A3000100F19BF1022052040F2FF508863E8D113
:103A400006A9204603F084FB00281CBF13B0BDE884
:103A5000F08F9DF81810072918BF0629F0D013B071
:103A6000BDE8F08F04284FF0E02001690CBF41F061
:103A7000040121F00401016170470000401EB0F113
:103A8000807F24BF012070474FF0E0214861F02083
:103A9000034A82F8140D0020072288610A617047EA
:103AA0000FE000E070477047002804BF0120704716
:103AB00010B5044690F83900002804BF204600F0F5
:103AC0000DF8022084F839002068211D03F0FCFD68
:103AD000012084F83900002010BD0000094808B515
:103AE000016841F00201016000680322012100F039
:103AF000020000901D20FEF71DF8BDE808401D20C3
:103B0000FEF70CB8403802400168CA6842F0010272
:103B1000CA600068016841F001010160002070473F
:103B2000704770B5044600680025016911F0020F66
:103B30001CBFC16811F0020F13D001216FF0020207
:103B4000026121762068806910F0030F204602D0C0
:103B5000FFF7E6FF04E000F0A6F8204600F0A4F826
:103B600025762068016911F0040F1CBFC16811F0AF
:103B7000040F13D002216FF0040202612176206845
:103B8000806910F4407F204602D0FFF7C9FF04E0AF
:103B900000F089F8204600F087F825762068016952
:103BA00011F0080F1CBFC16811F0080F13D00421D9
:103BB0006FF00802026121762068C06910F0030FDF
:103BC000204602D0FFF7ACFF04E000F06CF820467E
:103BD00000F06AF825762068016911F0100F1CBF0B
:103BE000C16811F0100F13D008216FF010020261AC
:103BF00021762068C06910F4407F204602D0FFF78C
:103C00008FFF04E000F04FF8204600F04DF82576D5
:103C10002068016911F0010F1CBFC16811F0010F8C
:103C200005D06FF001010161204600F03FF82068E7
:103C30006FF08005016911F0800F1CBFC16811F0A1
:103C4000800F03D005612046FFF72CFF2068016933
:103C500011F4807F1CBFC16811F0800F03D0056193
:103C60002046FFF71FFF2068016911F0400F1CBFBD
:103C7000C16811F0400F05D06FF04001016120468E
:103C800000F03CF82068016911F0200F1ABFC168EC
:103C900011F0200F70BD6FF0200101612046BDE8DA
:103CA0007040FFF700BF7047704700000849884226
:103CB00018BF704710B5074C07A0217804F0B8F979
:103CC0000848018808A004F0B3F90020207010BD56
:103CD000D4180220480002206672616D653A25649E
:103CE0000D0A0000080002206A7065675F64617455
:103CF000615F6C656E3A25640D0A0000704770477D
:103D000070B5016804462025C8690A688B6810F000
:103D10000F0F5CD040F2011C13EA0C0F00F0FB8087
:103D200010F0010F18BF12F4807F07D04FF0010C84
:103D3000C1F820C0E16E41F00101E16610F0020F10
:103D400018BF13F0010F08D0D4F800C00221CCF83E
:103D50002010E16E41F00401E16610F0040F18BF7D
:103D600013F0010F08D0D4F800C00421CCF82010C3
:103D7000E16E41F00201E16610F0080F0CD002F094
:103D8000200103F00103194306D0236808211962BA
:103D9000E16E41F00801E166E16E002908BF70BDE7
:103DA00010F0200F18BF12F0200F0BD094F86A20EB
:103DB0002046B4F85C10222A48D02068816941F07E
:103DC00008018161E06E10F0080F76D170E010F00C
:103DD000200F18BF12F0200F69D094F86A302046E7
:103DE000B4F85C20222B04D0886940F00800886178
:103DF00070BD8368B3F5805F04BF0369002B4B6A15
:103E0000416D03EA02021CD001F1010343650A700F
:103E1000B0F85A10A1F101010904090CA0F85A10D8
:103E200018BF70BD01680A6822F490720A600168C8
:103E30008A6822F001028A6080F86A5000F0D1F9A5
:103E400070BD0A80416D891C4165E1E78268B2F569
:103E5000805F04BF0269002A0368426D5B6A1FD05D
:103E600002F1010CC0F854C003EA010182F800100D
:103E7000B0F85A10A1F101010904090CA0F85A1078
:103E8000A0D101680A6822F490720A6001688A6809
:103E900022F001028A6080F86A5000F0A2F991E7EE
:103EA00019401180416D891C4165E1E705E032E070
:103EB0002068806810F0400F27D02068016821F446
:103EC000907101602068816821F00101816084F8AF
:103ED0006A502068816811F0400F12D0816821F08B
:103EE00040018160606E60B12E490165606EFDF732
:103EF0009CFA002808BF70BD606E016DBDE870407F
:103F000008472046FFF7FBFE70BD2046FFF7F7FE8F
:103F10000020E06670BD10F0800F18BF12F0800F17
:103F200030D094F86900212818BF70BDB4F8520051
:103F3000A8B1A068B0F5805F04BF20690028E06CDC
:103F400017D000F10101E16421680078C1F8280070
:103F5000B4F85200A0F10100A4F8520070BD086846
:103F600020F0800008602068016841F04001016095
:103F700070BD0088C0F308008862E06C00F10200A8
:103F8000E064E5E710F0400F14BF12F0400F70BD81
:103F90000A68204622F040020A6084F8695000F066
:103FA00021F970BDC7780008002804BF01207047C0
:103FB00010B5044690F8690028B9002084F868001C
:103FC000204600F029F8242084F869002068016860
:103FD00021F001010160204603F080FC012808BFA8
:103FE00010BD606A00281CBF204603F0CFFB20688C
:103FF000416821F4904141602068816821F02A01E4
:1040000081602068016841F0010101602046BDE83F
:10401000104003F028BC000010B50446006886B0CC
:10402000A0F18041B1F588311CBF06B010BD174822
:10403000016841F002010160006800F00200059093
:104040001348016841F0100101600068022100225C
:104050004FF0040C00F01000059003234FF4404093
:104060008DE80F100B486946FDF73AFB20680168A0
:1040700041F0200101602520FDF750FD032225209D
:104080001146FDF757FD06B010BD00003038024064
:1040900044380240000402402DE9F05F044690F8E5
:1040A0006A001D4617460E46202868D1002E12BF12
:1040B000002F0120BDE8F09F94F8680001285ED031
:1040C000012084F8680022214FF0000BC4F86CB086
:1040D00084F86A10FDF73EFC8046A068FF21A4F832
:1040E0005870B0F5805FA4F85A7006D04FF07F0288
:1040F00050B1B0F1805F0CD012E02069002808BFF9
:1041000040F2FF1002D109E02069B8BBA4F85C10AE
:1041100006E02069002818BF3F2031D0A4F85C00D9
:10412000B4F85C9009F0FF0AB4F85A00401EA4F8F5
:104130005A0020682027C06937EA000028D000BF55
:10414000B5F1FF3F1FD02DB1FDF704FCA0EB080136
:10415000A94218D3216820200A6822F4D0720A608C
:1041600021688A6822F001028A6084F8690084F874
:104170006A00032084F868B0BDE8F09F00E02CE0FE
:10418000A4F85C20CCE72068C06937EA0000D7D1EA
:10419000A068B0F5805F04BF2069002814D02068B3
:1041A000406A00EA0A0006F8010B00BFB4F85A00A2
:1041B0000028B9D14FF0200084F86A004FF00000C9
:1041C00084F868B0BDE8F09F2168304606F1020629
:1041D000496A01EA09010180E8E74FF00200BDE801
:1041E000F09F70477047FEE72DE9F041374E0746D4
:1041F00000243068254620F440603060306830602C
:10420000002210213046FDF7A0FB022004F0A8FB9D
:10421000012230461021FDF798FB60062021040E94
:104220003046FDF789FB00281CBF601CC4B201208A
:1042300004F096FB681CC5B2082DE1D34FF00002D4
:104240004FF0100130460FB3FDF77FFB306820F4CC
:1042500040603060306840F480603060002230465A
:104260002021FDF772FB022004F07AFB0122304688
:104270001021FDF76AFB022004F072FB0022304699
:104280001021FDF762FB2046BDE8F081FDF75DFBE4
:10429000306820F440603060306840F48060306006
:1042A000012230462021FDF750FB022004F058FB8C
:1042B000012230461021FDF748FB022004F050FB9C
:1042C000002230461021FDF740FBDCE7001C0240D5
:1042D00070B51C4C06462046216821F440612160DF
:1042E000216841F48061216000221021FDF72DFB3F
:1042F0005FF0000516F0800F05D001222046202136
:10430000FDF723FB04E0002220462021FDF71DFBE2
:104310007006060E022004F023FB01222046102125
:10432000FDF713FB022004F01BFB002220461021A6
:10433000FDF70BFB022004F013FB681CC5B2082D2F
:10434000D8D370BD001C024010B5124C206820F478
:1043500040602060206840F4806020600122204698
:104360002021FDF7F2FA012220461021FDF7EDFA97
:10437000042004F0F5FA002220462021FDF7E5FA9A
:10438000042004F0EDFA00222046BDE81040102180
:10439000FDF7DBBA001C024010B5124C206820F477
:1043A00040602060206840F4806020600022204649
:1043B0001021FDF7CAFA002220462021FDF7C5FA98
:1043C000042004F0CDFA012220461021FDF7BDFAA9
:1043D000012220462021FDF7B8FABDE81040042054
:1043E00004F0BEBA001C024070B5294D00242868B4
:1043F00020F4406028602868286001222021284697
:10440000FDF7A3FA012004F0ABFA0122284610219F
:10441000FDF79BFA012004F0A3FA20212846FDF7BE
:104420008BFA00282DD0611CCCB2FA2C23D9286835
:1044300020F440602860286840F4806028600022F2
:1044400028461021FDF781FA002228462021FDF799
:104450007CFA042004F084FA012228461021FDF79A
:1044600074FA012228462021FDF76FFA042004F097
:1044700077FA012070BD20212846FDF75DFA00285B
:10448000D1D1002228461021FDF75FFA002070BD2F
:10449000001C02402DE9F041354C0128354F4FF00A
:1044A0000106DFF8D480354D08BF267001D0207892
:1044B000A8B108212846FDF73FFAB8B104212846E3
:1044C000FDF73AFA90B14FF400513846FDF734FA4F
:1044D00060B101214046FDF72FFA012806D00821DE
:1044E0002846FDF729FA01283ED12AE00A2004F0E7
:1044F00013FA0020207008212846FDF71DFA002835
:1045000004BF0120BDE8F08104212846FDF714FA1C
:10451000002804BF0220BDE8F0814FF40051384666
:10452000FDF70AFA002804BF0320BDE8F08101214D
:104530004046FDF701FA012804BF0420BDE8F081E0
:1045400012E004212846FDF7F7F901280CD14103B8
:104550003846FDF7F1F9012806D101214046FDF763
:10456000EBF9002808BF26700020BDE8F0810000AC
:104570002C0002200008024000000240001C024003
:1045800070B506461448134D0168288821B130469D
:10459000BDE8704000F088BD698801FB00F400218F
:1045A000084600F0BDF90D4928890880002C08BF95
:1045B00070BD04F001010A48B2B2012908BF0280AF
:1045C000A14228BF70BD891C0280A1420280FAD39B
:1045D00070BD0000BC03022074040220FEFF0760CF
:1045E000000008602DE9F84F934B1B681BB1BDE834
:1045F000F84F00F0CBBD924C0E0ADFF840C2CDB2AE
:1046000027460CF10203B4F8049000F0FF08B989C2
:104610004FEA102A7F89A9F5134BBBF1410B1CBF50
:10462000A9F5A04BBBF5447B0AD0A9F5A04BBBF57F
:10463000A26B3ED0A9F5C858B8F163087DD0F4E06C
:10464000ADF80070BDF80000ADF80000BDF8000046
:10465000ACF80000ADF800A0BDF80000ADF8000017
:10466000BDF800001880ADF80080BDF80000ADF87E
:104670000000BDF800001880ADF80010BDF8000083
:10468000ADF80000BDF80000ACF80000ADF8006027
:10469000BDF80000ADF80000BDF800001880ADF8CE
:1046A0000050BDF80000ADF80000BDF80000188013
:1046B000BBE0ADF80070BDF80000ADF80000BDF83B
:1046C0000000ACF80000ADF800A0BDF80000ADF8A7
:1046D0000000BDF800001880781CADF80000BDF89F
:1046E0000000ADF80000BDF80000ACF80000ADF827
:1046F0000080BDF80000ADF80000BDF80000188093
:10470000ADF80010BDF80000ADF80000BDF80000E5
:10471000ACF80000ADF80060BDF80000ADF8000096
:10472000BDF800001880481CADF80000BDF800007E
:10473000ADF80000BDF8000000E00BE0ACF80000B0
:10474000ADF80050BDF80000ADF80000BDF8000065
:1047500018806AE094F80680B8F1000F05D1B4F82B
:104760000080A8EB0000401E80B2ADF80070BDF8DC
:104770000070ADF80070BDF80070ACF80070070A6A
:10478000ADF80070BDF80080ADF80080BDF8008085
:10479000A3F80080C0B2ADF80000BDF80080ADF80D
:1047A0000080BDF80080A3F80080ADF80070BDF86F
:1047B0000070ADF80070BDF800701F80ADF800000B
:1047C000BDF80000ADF80000BDF800001880ADF89D
:1047D0000010BDF80000ADF80000BDF80000ACF816
:1047E0000000ADF80060BDF80000ADF80000BDF8B5
:1047F00000001880ADF80050BDF80000ADF80000D2
:10480000BDF800001880ADF80060BDF80000ADF8FC
:104810000000BDF800001880ADF80050BDF80000A1
:10482000ADF80000BDF8000018802089ACF8000049
:104830001A80BDE8F88F000074040220FEFF0760B4
:10484000BC03022038B5324C2288824287BF62887E
:104850008A42002038BD2F4A12681AB1BDE838409C
:1048600000F018BD00F05CF8A18841F663132A48F7
:10487000A1F51342413A1EBFA1F5A042B2F5447220
:1048800099420BD14FF02E02ADF80020BDF8002068
:10489000ADF80020BDF8002002800EE0A1F5AA428C
:1048A000103A0AD14FF43852ADF80020BDF800207C
:1048B000ADF80020BDF800200280184A1088ADF83D
:1048C0000000BDF80000994214BF002038BD401E12
:1048D000B0F1FF3FFBDC1088ADF80000BDF8001020
:1048E0000020401EB0F1FF3FFBDC1088ADF8000057
:1048F000BDF8000001F47842C9B24FF6FF7303EA35
:104900000121890A42EA411141EAD02038BD000064
:10491000BC03022074040220FEFF07600000086050
:104920002DE9F807AB4B0E0AAB4ACDB29C46911C61
:10493000B3F804904FEA1028BCF80C40C7B2BCF89A
:104940000AC0A9F5134ABAF1410A1CBFA9F5A04A49
:10495000BAF5447A59D0A9F5C85ABAF1630A7DD09C
:10496000A9F5AA4010381CBFBDE8F8077047ADF89C
:1049700000C0BDF80000ADF80000BDF800001080D8
:10498000ADF80080BDF80000ADF80000BDF80000F3
:1049900008800CF10100ADF80000BDF80000ADF892
:1049A0000000BDF800001080ADF80070BDF80000F8
:1049B000ADF80000BDF800000880ADF80040BDF87B
:1049C0000000ADF80000BDF800001080ADF80060F8
:1049D000BDF80000ADF80000BDF800000880601CC4
:1049E000ADF80000BDF80000ADF80000BDF8000013
:1049F0001080ADF80050BDF80000ADF80000BDF823
:104A000000000880BDE8F8077047ADF800C0BDF8A9
:104A10000000ADF80000BDF800001080ADF8008087
:104A2000BDF80000ADF80000BDF800000880ADF84A
:104A30000070BDF80000ADF80000BDF8000008806F
:104A4000ADF80040BDF80000ADF80000BDF8000072
:104A50001080ADF80060BDF8000000E010E0ADF897
:104A60000000BDF800000880ADF80050BDF800005F
:104A7000ADF80000BDF800000880BDE8F8077047F9
:104A8000DFF8509193F806A0BAF1000FB9F8009042
:104A900066D0ADF800C0BDF80000ADF80000BDF86C
:104AA00000001080ADF80080BDF80000ADF80000F7
:104AB000BDF800000880ADF80070BDF80000ADF84A
:104AC0000000BDF800000880A9F101004FEA102C99
:104AD000ADF800C0BDF800C0ADF800C0BDF800C022
:104AE000A1F800C0C0B2ADF80000BDF80000ADF8FC
:104AF0000000BDF800000880ADF80040BDF80000DF
:104B0000ADF80000BDF800001080ADF80060BDF801
:104B10000000ADF80000BDF800000880ADF80050BE
:104B2000BDF80000ADF80000BDF80000088058880E
:104B3000401E020AADF80020BDF80020ADF80020AC
:104B4000BDF800200A80C0B2ADF80000BDF800003A
:104B5000ADF80000BDF800000880BDE8F807704718
:104B6000A9EB0000ADF800C0401E80B2BDF800C047
:104B7000ADF800C0BDF800C0A2F800C04FF0000CB6
:104B8000ADF800C0BDF80070ADF80070BDF8007061
:104B90000F80ADF800C0BDF800C0ADF800C0BDF892
:104BA00000C0A1F800C04FEA102CADF800C0BDF85D
:104BB00000C0ADF800C0BDF800C0A1F800C0C0B290
:104BC000ADF80000BDF80000ADF80000BDF8000031
:104BD000088091E7BC030220FEFF07602DE9F04F3B
:104BE0000B44DFF878C384185E1E8CB0671E030A7E
:104BF00009931FFA87F8BCF80C300C0ACDB2BCF848
:104C00000A10BCF804C01FFA86FA4FEA18294FEAC6
:104C10001A27ACF5134BBBF1410B00F0FF0E08F067
:104C2000FF080AF0FF0A1CBFACF5A04BBBF5447BA4
:104C30007DD0DFF828B39BF806B0BBF1010F04BFAD
:104C4000ACF5C85BBBF1630B71D0ACF5C85BBBF1D5
:104C5000630B00F00C81ACF5AA4010381CBF0CB0FF
:104C6000BDE8F08FADF81010BDF81000ADF81000E1
:104C7000BDF81020BA480280099AADF81020BDF89E
:104C80001020ADF81020BDF810C0821CA2F800C0A2
:104C900001F1010CADF810C0BDF810C0ADF810C0A6
:104CA000BDF810C0A0F800C0ADF80CE0BDF80CC015
:104CB000ADF80CC0BDF80CC0A2F800C001F1020CA8
:104CC000ADF80CC0BDF80CC0ADF80CC0BDF80CC000
:104CD000A0F800C0ADF80C90BDF80CC0ADF80CC049
:104CE000BDF80CC0A2F800C0C91CADF80010BDF89A
:104CF0000010ADF80010BDF800100180ADF8008084
:104D0000BDF80010ADF80010BDF800101180ADF82E
:104D10000030BDF80010ADF80010BDF800100180A3
:104D2000ADF80040BDF80010ADF8001000E03EE026
:104D3000BDF800101180591CADF80010BDF800102E
:104D4000ADF80010BDF800100180ADF80050BDF8BE
:104D50000010ADF80010BDF800101180991CADF8DE
:104D60000010BDF80010ADF80010BDF80010018073
:104D7000ADF80070BDF80010ADF80010BDF80010DF
:104D80001180D91CADF80010BDF80010ADF800106E
:104D9000BDF800100180ADF800A0BDF80000ADF82E
:104DA0000000BDF8000010800CB0BDE8F08FADF839
:104DB0000010BDF800006A49ADF80000BDF8000021
:104DC00008800998ADF80000BDF80020881CADF8F7
:104DD0000020BDF800200280ADF800E0BDF8002002
:104DE000ADF80020BDF800200280ADF80090BDF8BD
:104DF0000020ADF80020BDF800200280ADF8008052
:104E0000BDF80020ADF80020BDF800200280ADF80C
:104E10000030BDF80020ADF80020BDF800200A8069
:104E2000ADF80040BDF80010ADF80010BDF800105E
:104E30000180ADF80050BDF80010ADF80010BDF8CD
:104E400000100180ADF80070BDF80010ADF8001042
:104E5000BDF800100180ADF800A0BDF80010ADF85D
:104E60000010BDF8001001800CB0BDE8F08FDFF835
:104E7000ECC0B6B2BCF800C0ADF80010ACEB020C50
:104E8000ACEB00001FFA80FCBDF800003449ADF81F
:104E90000000BDF800000880881C4FEA1C27ADF810
:104EA0000070BDF80070ADF80070BDF800700780AC
:104EB0000CF0FF07ADF80070BDF80070ADF80070A1
:104EC000BDF8007007806244521E4FEA122CADF804
:104ED00000C0BDF800C0ADF800C0BDF800C0A0F82B
:104EE00000C0D2B2ADF80020BDF80020ADF800201F
:104EF000BDF800200280ADF80030BDF80020ADF80C
:104F00000020BDF800200A80ADF80040BDF8001078
:104F1000ADF80010BDF800100180ADF80050BDF8EC
:104F20000010ADF80010BDF800100180310AADF896
:104F30000010BDF80010ADF80010BDF800100180A1
:104F4000F1B2ADF80010BDF80010ADF80010BDF8DA
:104F5000001001800CB0BDE8F08F0000BC030220FF
:104F6000FEFF07602DE9FF4F89B01D4613F00700D3
:104F70000C468846DDF858B018BF012000EBD5007C
:104F80006908A2F1200210FB01F1002011F0FF01DD
:104F9000CDE90001D0B204BF0DB0BDE8F08F00EB49
:104FA0004002394F00EBC001DFF8E0A007F2744384
:104FB000DFF8DC9003F5BE6607EB8202059206EB94
:104FC000810106F65C5C03EB001204920CEBC0104E
:104FD000CDE902010C2D17D0102D19D0182D1BD0A2
:104FE000202D1CBF0DB0BDE8F08F00990298465CE3
:104FF0005FF0000716F0800F12D0DAF8002021468B
:105000000998FFF7EFFA14E000990598465CEFE77E
:10501000049900980E5CEBE700990398465CE7E77B
:10502000BBF1000F05D1DAF8042021460998FFF7FB
:10503000D9FA7206B9F80200611C8CB2160EA042B1
:105040009CBF0DB0BDE8F08FA4EB0800A8420CD1C6
:1050500009984446B9F80010401C80B2099081427A
:105060009CBF0DB0BDE8F08F03E0781CC7B2082FDD
:10507000C0D30098401CC0B20090014601988842FD
:10508000A8D80DB0BDE8F08F6ACD0008300002202E
:10509000BC030220024803490089088070470000D1
:1050A000BC030220FEFF076008B500900548018B95
:1050B000C08A491E8BB2401E82B20021084600F011
:1050C00087F808BD740402202DE9F0032B4D069EDD
:1050D00095F815C0BCF1000F1CBF8446144606D1DC
:1050E0008C4669681C468A1A081A511E431E286895
:1050F000234FA4EB0C0495F81480021B00FB01C99C
:10510000A3EB010C3B682049521E1E4851F82810A1
:1051100043F4000893B2EA69C7F8008002FB091261
:10512000002101600225C561016103640368ED038C
:105130000CF1010105EB044C41EA0C0123F00103E1
:105140000360C660C2634164016841F0010101600F
:10515000416811F0020F08BF012108D103E0491C8A
:10516000B1F5001F03D2426812F0020FF7D0816838
:1051700041F002018160BDE8F00370477404022031
:105180003038024000B00240380002200E4B1FFAB7
:1051900082FCF0B41C460D4E5F7D257D002FE26938
:1051A000246856F825501CBF04FB010002FB00F0E8
:1051B00006D15B68181A401E04FB001000FB02F0C9
:1051C00025F800C0F0BC70477404022038000220AB
:1051D0002DE9F0032B4D069C95F815C0BCF1000F8E
:1051E0001CBF8446164606D18C4669681E468A1A3C
:1051F000081A511E431E2868234AA6EB0C0695F890
:105200001480871B00FB01C9A3EB010C1368204924
:10521000ED691E4851F8281043F4000805FB0911F8
:105220007B1EC2F800809BB24FF44035056002221D
:1052300042630364D203036802EB06420CF1010CE3
:105240004CEA020223F001030360C16342648463F9
:10525000016841F001010160416811F0020F08BFCF
:10526000012108D103E0491CB1F5001F03D24268B7
:1052700012F0020FF7D0816841F002018160BDE8B1
:10528000F0037047740402203038024000B002403E
:10529000380002200E4B70B49C460E4D5E7D9CF88B
:1052A0001440002EDCF81C20DCF800C055F8244027
:1052B0001CBF0CFB010002FB00F006D15B68181A52
:1052C000401E0CFB001000FB02F0205A70BC70471F
:1052D00074040220380002202DE9F0432F4C0126EF
:1052E0002F4F85B04FF00050216800254FF0030983
:1052F00021F480312160396821F0010139601221E7
:105300008DF808108DF80C508DF809508DF80D505F
:105310008DF800608DF80A508DF80E608DF80160F0
:10532000019068468DF80B908DF80F60FCF746FBF6
:105330004FF00508C7F80080206840F480302060F6
:1053400021684FF0404021F480312160396821F01C
:105350000101396018218DF808108DF80C500222D7
:105360008DF809508DF80D508DF800608DF80A50B9
:105370008DF80E608DF80120019068468DF80B9035
:105380008DF80F60FCF71AFBC7F80080206840F426
:105390008030206005B0BDE8F083000024ED00E01F
:1053A00094ED00E00F4800220121FCF7CEFA0EA098
:1053B00002F03EFE4FF47A7003F0AEFA10A002F055
:1053C00037FE4FF47A7003F0A7FABFF34F8F1148FE
:1053D0001149026802F4E06211430160BFF34F8F8C
:1053E00000BFFDE7000402404D656D204163636529
:1053F0007373204572726F7221210D0A0000000044
:10540000536F6674205265736574696E672E2E2E15
:105410000D0A00000CED00E00400FA052DE9F84F3C
:10542000DFF8C88100271C4616460A9D8946ADF85C
:10543000007098F80620B0FBF2F1B9FBF2F2C90750
:10544000B1EBC27F7ED1DFF8A8B1DFF8A8A18BF85D
:105450000070010A8AF80070020C35238AF8007087
:105460008AF800008AF800108AF800208BF80030D3
:10547000002000F049FD20B9012000F045FD0300A7
:1054800002D00220BDE8F88F85208BF80000310A99
:105490008AF800604FEA19208AF800104FEA194292
:1054A0008AF800908AF800008AF800201E2000F098
:1054B000E3F8E8054FF00049C00D13D0ADF80070D7
:1054C000BDF8000085427DD914F8010B89F8000071
:1054D000BDF80000401CADF80000BDF8000085429A
:1054E000F2D875E06D0A4FEA562618BF4FF02041FA
:1054F00033D000BFD1F8800040F04000C1F88000F8
:10550000ADF80070BDF80000B0F5007F0ED200BF0E
:1055100014F8010B89F80000BDF80000401CADF83C
:105520000000BDF80000B0F5007FF1D3D1F8840091
:1055300010F0400FFAD0D1F894009A195B1C08EBD8
:10554000820200E04EE0D061DBB2D1F880009D42E3
:1055500020F04000C1F88000CCD8B8F8021010202C
:1055600000EB86000844ADF800001E2000F084F82F
:1055700085208BF80000BDF800008AF80000BDF817
:105580000000000A8AF800001E2000F075F808EB01
:105590008600ADF80070BDF800101C30A94217D28B
:1055A000017889F80010417889F80010817889F82D
:1055B0000010C17889F80010BDF80010491CADF842
:1055C000001000E004E0BDF80010001DA942E7D380
:1055D00010208BF8000000F053FC402804BF00208E
:1055E000BDE8F88F0120BDE8F88F0000CC04022050
:1055F00000000180000002802DE9F0410E461B49A9
:105600008979B0FBF1F2B6FBF1F1D207B2EBC17FC1
:1056100029D1174F0024174D3C70010A2C70020C41
:1056200035232C70287029702A703B70204600F0BA
:105630006BFC18B9012000F067FC10B10220BDE836
:10564000F08185203870300A2C70310C2C701022BB
:105650002E70287029703A7000F012FC402804BFA8
:105660000020BDE8F0810120BDE8F081CC040220DB
:1056700000000180000002804DF8040D81B0019807
:105680000090002804BF02B07047B0F1004F1AD25A
:105690000028D8BF002005DD10F0010002D00199DC
:1056A000491E01910099401C491C8842B2BF019AD1
:1056B00002B07047521E801C8842A2F10102019282
:1056C000F8DB02B070470198401E0190FCD102B097
:1056D000704700002DE9F04701264FF0000C054609
:1056E00034465FF01800634603EBD37727F00107D9
:1056F000DF1BB7420AD121FA03F717F0010F05D0DB
:105700005F1004FA07F7BC441FFA8CFC401E5B1CB8
:1057100010F0FF00E8D100275FF018003E463B463E
:1057200003EBD37828F00108A3EB0808B8450AD1A9
:1057300021FA03F818F0010F05D04FEA630804FAC4
:1057400008F84644B6B2401E5B1C10F0FF00E7D1DB
:10575000012701465FF0180301EBD17828F001081A
:10576000A1EB0808B8450AD122FA01F818F0010F98
:1057700005D04FEA610804FA08F8404480B2491C99
:105780005B1E13F0FF03E7D19846182743464146B6
:1057900001EBD17929F00109A1EB0909C1450AD131
:1057A00022FA01F919F0010F05D04FEA610904FA54
:1057B00009F94B449BB2491C7F1E17F0FF07E7D144
:1057C0008CEA060141405940A1F57062FF3A05D0CC
:1057D0000BA002F02DFC0120BDE8F0878CEA00064A
:1057E0000EA0314602F024FCF00806F007012A5C06
:1057F00004FA01F1514029540020BDE8F08700006F
:105800003262697420656363206572726F72206F03
:1058100072206D6F72650D0A000000006572726F74
:1058200072706F733A25640D0A0000000F4930B59D
:105830000F4A0969914208BFC00103D00D4A914245
:1058400008BF80010C4A0D496023040CD0254FEAA3
:10585000102C1370087081F800C00C70157000F0E7
:105860000FFB402814BF0120002030BDCC040220D3
:1058700089260048569590DC0000018000000280D7
:105880002DE9F043574D8FB0DFF85C812968032084
:105890000127C607002421F480312960D8F80010C0
:1058A00021F00101C8F800101B218DF830108DF88F
:1058B00034408DF831408DF835408DF828708DF8E2
:1058C00032408DF836408DF829000B968DF8330064
:1058D0000AA88DF83770FCF771F80520C8F80000A9
:1058E000286840F4803028604149F30D3F4A0A207F
:1058F0000A609202C1E90134CC600C61C1E9052063
:10590000C86102AA079006A9089009900690029023
:105910000390049005903648FCF781F8DFF8D480B6
:10592000FF2088F8000000F0ABFA642002F0F4FFDA
:10593000DFF8C490902088F8000089F800403078A3
:105940008DF8000030788DF8010030788DF8020075
:1059500030788DF8030030788DF80400BDF8012010
:105960009DF80300254D52BA9DF80410120442EA36
:1059700000200143296122A002F05AFB0420EF21FC
:1059800088F8001089F8007030703470347034700A
:1059900000F076FAF00C1E4B2A6941109A420CD1A5
:1059A0004FF487532B8068804FF0E00CA5F804C0BB
:1059B0008022AA71298168810FE0164B9A421EBF8E
:1059C00001200FB0BDE8F0834FF4046340222B8028
:1059D0006980AA80AA71298168810FB00020BDE882
:1059E000F083000024ED00E094ED00E0800000A0D2
:1059F000940402200000018000000280CC040220F8
:105A00004E414E442049443A2523780D0A000000B7
:105A100089260048569590DC2DE9FF4F83B01C463F
:105A2000DFF858B30027DFF858A31546049BADF8FC
:105A30000070190A8BF8007003988AF80030020A87
:105A400003984FF0300C8AF80010030C8AF800001D
:105A50008AF800208AF800308BF800C0B84640462B
:105A600000F052FA18B9012000F04EFA18B107B050
:105A70000220BDE8F08FE1054FF00049C90D16D0B6
:105A8000ADF80070BDF80000844240F25B8100BFB9
:105A900099F8000005F8010BBDF80000401CADF8B6
:105AA0000000BDF800008442F2D800F04BB9049920
:105AB000660AB44B01954FEA512418BF4FF02041BC
:105AC00033D000BFD1F8802042F04002C1F88020DE
:105AD000ADF80070BDF80020B2F5007F0ED200BF17
