:020000040800F2
:1000000040D80220110200080D2600080B26000827
:100010001D020008B5030008D135000800000000EB
:10002000000000000000000000000000B92E0008E1
:100030008D060008000000007D2B0008BB2E000884
:100040002B0200082B0200082B0200082B020008DC
:100050002B0200082B0200082B0200082B020008CC
:100060002B0200082B0200082B0200082B020008BC
:100070002B0200082B0200082B0200082B020008AC
:100080002B0200082B0200082B0200082B0200089C
:100090002B0200082B0200082B0200082B0200088C
:1000A0002B0200082B0200082B0200082B0200087C
:1000B0002B020008D12F0008DD2F00082B020008BA
:1000C0002B0200082B0200082B0200082B0200085C
:1000D0002B020008593500082B0200082B020008EB
:1000E0002B0200082B0200082B0200082B0200083C
:1000F0002B0200082B0200082B0200082B0200082C
:100100002B0200082B0200082B0200082B0200081B
:100110002B0200082B0200082B0200082B0200080B
:100120002B020008FD0500082B0200082B02000826
:100130002B0200082B0200082B0200082B020008EB
:100140002B0200082B0200082B0200082B020008DB
:100150002B0200082B0200082B0200082B020008CB
:100160002B0200082B0200082B0200082B020008BB
:100170002B0200082B0200085905000800000000AF
:100180002B0200082B0200082B0200082B0200089B
:100190002B0200082B0200082B0200082B0200088B
:1001A0002B0200082B0200082B0200082B0200087B
:1001B0002B0200082B0200082B0200082B0200086B
:1001C0002B0200082B020008000000002B02000890
:1001D0002B0200082B0200082B0200082B0200084B
:1001E0002B0200082B0200082B0200082B0200083B
:1001F0002B0200082B020008DFF810D000F07EF878
:10020000004800475D3D0008AFF3008040D8022061
:100210000648804706480047FEE7FEE7FEE7FEE7A0
:10022000FEE7FEE7FEE7FEE7FEE7FEE7712F0008C8
:10023000F901000810B5431A934209D283188818AF
:1002400003E010F8011D03F8011D521EF9D210BD84
:1002500040EA01039B0703D009E008C9121F08C048
:10026000042AFAD203E011F8013B00F8013B521EC8
:10027000F9D210BDD2B201E000F8012B491EFBD229
:1002800070470022F6E710B513460A4604461946A1
:10029000FFF7F0FF204610BD2DE9F05F0546002076
:1002A00092469B4688460646814640241BE02846E7
:1002B00041464746224600F042F853465A46C01A85
:1002C000914110D311461846224600F029F82D1A04
:1002D00067EB01084F4622460120002100F020F87C
:1002E00017EB00094E41201EA4F10104DFDC484653
:1002F00031462A464346BDE8F09F0000064C074DB4
:1003000006E0E06840F0010394E8070098471034E5
:10031000AC42F6D3FFF774FF7457000894570008F7
:10032000202A04DB203A00FA02F1002070479140B5
:10033000C2F1200320FA03F3194390407047202AAA
:1003400004DB203A21FA02F00021704721FA02F37F
:10035000D040C2F12002914008431946704770B561
:100360008C1810F8015B15F0070301D110F8013B60
:100370002A1106D110F8012B03E010F8016B01F8E7
:10038000016B5B1EF9D12B0705D40023521E0DD43F
:1003900001F8013BFAE710F8013BCB1A921C03E08D
:1003A00013F8015B01F8015B521EF9D5A142D8D3C5
:1003B000002070BDFEE7000070B4BFF34F8FBFF3A5
:1003C0006F8F19490020174E0860316841F40031E1
:1003D0003160BFF34F8FBFF36F8F14490860BFF3D5
:1003E0004F8F081F124943F6FF750068C0F34E3C5B
:1003F000C0F3C90405EA4C12204600BF42EA8073EC
:100400000B60401EFAD2BCF1010CF3D2BFF34F8F48
:10041000306840F480303060BFF34F8FBFF36F8F90
:1004200070BC704714ED00E050EF00E084ED00E098
:1004300060EF00E070B514460D4606460C4800F02B
:1004400026F9E1010A4CDFF82CC070010023AA0153
:10045000C4F800C0E160C4E90130C4E904232046C7
:10046000A36100F089F920680168016070BD000097
:1004700014D302200000055010B5806B816C496DCB
:10048000022906D0012180F83510C16C41F04001ED
:10049000C16400F007F910BD2DE9F84F0F462A4955
:1004A00080461646086840F48000086008680A150F
:1004B000264C4FF0007C00F480000090A4F1500026
:1004C000234B00254FF0040989144FF0010A84647E
:1004D000A06388002360C4F804C04FF4003CC4F853
:1004E00024908311A560C4E90352C4E90AA52563D9
:1004F000C4E90510C4E9073C204600F077FA20461D
:1005000000F0B8FA134984F83450A7B13B4642468C
:100510002046009600F019FA2068016841F01001A9
:10052000016000223920114600F024FDBDE8F84F9B
:10053000392000F012BD01B0334642460348BDE801
:10054000F04F00F059BB00003038024064D3022065
:100550002864024028000550014800F0B7B80000A8
:1005600014D3022010B5114C20220F4B002008217B
:100570002360C4E90102E060206160612162A06142
:10058000204600F0F9F82068C16821F01E01C16022
:100590002068C16841F00101C1602068016841F430
:1005A0008041016010BD00000000055014D30220FE
:1005B00070470000054806490068026842F00102E1
:1005C0000260086840F001000860704764D30220B0
:1005D000000005500748016821F001010160016831
:1005E00011F0010FFBD104480068016821F00101FE
:1005F000016070470000055064D30220194830B4F0
:10060000194C1A4B0068DFF868C01A49A04204D997
:10061000194A126802F4006205E0984216D9174A96
:10062000126802F40062002A04BF30BC70474FF425
:100630000062A04288BF124803D8984288BF114880
:100640000BD902601048406830BC004760458CBF41
:100650004A680A6802F40062E5E760458CBFCA6038
:100660008A60EFE764D3022058640240B860024019
:10067000586002400060024004640240006402408E
:100680000C640240086402402C000220704710B540
:10069000044600F0D6F80020E06484F8350084F8C1
:1006A000340010BD7047000010B503F037FA05485C
:1006B00005490278521C02700868C16841F00101C6
:1006C000C16010BD2C00022014D302202DE9F0419E
:1006D00004460068274F0426056915F0040F0BD067
:1006E0004661E06C40F00200E06484F83560A06C84
:1006F0000765A06C00F067F915F0020F0DD02168B6
:1007000002204861E06C40F00100E06484F835604C
:10071000A06C0765A06C00F056F915F0100F05D01D
:10072000216810204861204600F08AF815F0080F73
:1007300005D0216808204861204600F005F915F031
:10074000010F08BFBDE8F0812068016811F0020FB9
:1007500003D0C16821F01E01C16020680121C26878
:1007600022F00102C260206841612046FFF79CFF31
:10077000BDE8F08179040008002804BF012070471B
:1007800070B5044690F83500002804BF204600F0FC
:1007900059F8022084F83500206828490268114081
:1007A0000160201D626990E80B101043A26943EAC2
:1007B0000C03034304F120000B4343EA020C0FC86F
:1007C0004CEA000C20684CEA010C216B4CEA020256
:1007D000D0F800C01A43114341EA0C01016060687F
:1007E00010281ED14FF47F40A17F4FF07F4C257F12
:1007F00090FAA0F20302607FB2FA82F293FAA3F3B6
:100800009CFAACF694F81FC09040B3FA83F32268C8
:10081000B6FA86F699400CFA06F3284319430843C2
:100820009061206800220121C36843F01E03C36069
:10083000E26484F83510104670BD000007F0E0FF58
:1008400070477047394810B586B0016841F0010122
:100850000160006800F0010005903548016841F032
:1008600001010160016801F001010591016841F099
:1008700002010160016801F002010591016841F087
:1008800004010160016801F004010591016841F073
:1008900008010160016801F008010591016841F05B
:1008A00080010160016801F080010591016841F05B
:1008B000400101600068022101224FF00D0C00F0A0
:1008C0004000059040201B4C03238DE80F10694623
:1008D000204600F0D3F9601500901748694600F0F3
:1008E000CDF94FF4407000901448694600F0C6F905
:1008F0004FF43C6000901248694600F0BFF90820B0
:1009000000901048694600F0B9F91020694600903F
:10091000204600F0B3F900224E20114600F02AFBD9
:100920004E2000F01AFB06B010BD00003438024023
:10093000303802400000024000180240000402402B
:1009400000080240000C0240704770B485684FF008
:10095000000C039C802D13D090F83450012D02BF61
:10096000022070BC704790F83560012580F8345043
:10097000012E18BF4FF0020C08D070BC60467047C3
:100980004FF480714FF0010C4165F6E7022580F8C5
:10099000355005682E6846F480262E6005682B6168
:1009A00003685C608368402B036803BF9A60026839
:1009B000D16099601CBF0168CA600068016841F09D
:1009C00001010160D9E790F83510022903D0802198
:1009D000416501207047052180F8351000680168E5
:1009E00021F001010160002070470000002804BFD1
:1009F0000120704790F83510022904BF022070478B
:100A0000002102682123D2F800C02CF0010CC2F8AA
:100A100000C002681160026851600268916002685B
:100A2000D160026811610268536102680F4B02F0E5
:100A3000FF0CACF1100C6FF30902A3FB0CC3DFF841
:100A400030C01B09032B1CF803C0C0F85CC088BF72
:100A5000121D3F23826503FA0CF39360416580F811
:100A6000351080F83410002070470000ABAAAAAA05
:100A7000985200082DE9F047044600F039FA002C9E
:100A8000054604BF0120BDE8F0870026022084F857
:100A9000346084F835002068016821F001010160AC
:100AA0002068006810F0010F11D000BF00F020FA9C
:100AB000401B052806D920216165032084F83500F4
:100AC000BDE8F0872068006810F0010FEED1D4E98E
:100AD000023CD4E90010D4E9047218434CEA070838
:100AE000D4E90653D4E908C740EA0809086849EA86
:100AF0000202DFF8F8802A4342EA030200EA080013
:100B000042EA0C02042F42EA000003D1D4E90B238D
:100B10001A431043086023680122606A5969042857
:100B200021F0070140EA010144D1A06AD4F818C0BD
:100B30000143BCF1000F0AD0BCF5005F1CD00028B7
:100B40001CBF012802282CD0032826D032E020B177
:100B5000012807D002280AD02CE0E06A10F0807F3C
:100B60001FD127E0E06AB0F1C07F23D119E0E06A2D
:100B700010F0807F15D11DE098B1012808D002281F
:100B80000FD0032804BFE06AB0F1C07F09D011E0A4
:100B9000E06A10F0807F04D10CE0E06A10F0807F02
:100BA00008D04FF04000606584F835204FF0010018
:100BB000BDE8F087596120680D49C3B2A3F1100365
:100BC0006FF30900A1FB03310A4B4FEA111103290E
:100BD0005B5CE36588BF001D3F21A0659940816093
:100BE000666584F835200020BDE8F0873F8010E07E
:100BF000ABAAAAAA9852000870B490F834404FF0FB
:100C0000000C012C02BF022070BC704790F83560C8
:100C1000012580F834500024012E1CBF4FF0020C37
:100C200080F8344002D070BC60467047022580F8DE
:100C3000355044650468256825F4802525600468DE
:100C400063608368402B036803BF9A600268D160C9
:100C500099601CBF0168CA600068016841F0010129
:100C60000160E0E731B500F043F9044600F040F9D7
:100C70000099001B8842F9D338BD00002DE9F84FD8
:100C80008F4E002201274FF003094FF00F0800BFDD
:100C90000B6807FA02FC03EA0C03634540F00A8183
:100CA0004C68022C18BF122C13D14FEAD204D1F891
:100CB00010B04FEA427A00EB8404256A4FEADA6A00
:100CC00008FA0AFE0BFA0AFA25EA0E054AEA0505B1
:100CD000256291F804B04FEA4204D0F800A00BF06E
:100CE000030B09FA04F50BFA04FB2AEA050A4BEA9E
:100CF0000A0AC0F800A0D1F804A0BAF1010F18BF89
:100D0000BAF1020F05D0BAF1110F18BFBAF1120FE4
:100D100019D1D0F808A0D1F80CB02AEA050A0BFACC
:100D200004FB4BEA0A0AC0F808A0D0F804A091F826
:100D300004B02AEA0C0CCBF3001B0BFA02FA4AEAC5
:100D40000C0CC0F804C0D0F80CC0D1F808A02CEAF4
:100D5000050C0AFA04F444EA0C0CC0F80CC0D1F8F3
:100D600004C01CF0805F7DD0356822F0030C4FEA90
:100D7000827445F4804535604FEA147435680CF18F
:100D8000804C0CF5983C05F48045009508FA04FA6F
:100D9000DCF80858A0F1804BBBF5003B25EA0A05BA
:100DA00008BF4FF0000A48D0A0F1804ABAF5013AD6
:100DB00008BF4FF0010A40D0A0F1804ABAF5023ACC
:100DC00008BF4FF0020A38D0A0F1804ABAF5033AC2
:100DD00008BF4FF0030A30D0A0F1804ABAF5043AB8
:100DE00008BF4FF0040A28D0A0F1804ABAF5053AAE
:100DF00008BF4FF0050A20D0A0F1804ABAF5063AA4
:100E000008BF4FF0060A18D0A0F1804ABAF5073A99
:100E100008BF4FF0070A10D0A0F1804ABAF5083A8F
:100E200008BF4FF0080A08D0A0F1804ABAF5093A85
:100E30000CBF4FF0090A4FF00A0A0AFA04FA214CD3
:100E40004AEA0505CCF808584D68D4F800C015F4F6
:100E5000803F2CEA030C18BF4CEA030C1A4DC4F86F
:100E600000C000E026E04C68D5F800C014F4003F54
:100E70002CEA030C18BF4CEA030CDFF850A0C5F8AD
:100E800000C04C68DAF800C014F4801F2CEA030C90
:100E900018BF4CEA030C0E4CCAF800C04D68D4F8D9
:100EA00000C015F4001F2CEA030C18BF4CEA030C19
:100EB000C4F800C0521C102AFFF4EAAEBDE8F88F57
:100EC00044380240003C0140043C0140083C0140E1
:100ED0000C3C01400069084018BF0120704742697E
:100EE000514041617047002A08BF09048161704781
:100EF00001480068704700001C0002200248016899
:100F0000491C0160704700001C000220074810B512
:100F1000016841F400710160052000F05BF80F20CA
:100F200000F006F800F018F8002010BD003C024068
:100F3000084A10B504464FF47A701268B2FBF0F01C
:100F400000F0AEFF00222146501E00F013F80020F2
:100F500010BD0000180002207047410900F01F007A
:100F60008A00012102F1E02201FA00F0C2F800013A
:100F700070470000164B30B41B68C3F30223C3F163
:100F8000070CBCF1040F88BF4FF0040C1C1D072C8C
:100F900034BF0023DB1E012404FA0CFC04FA03F521
:100FA000ACF101042140A5F1010C99400CEA0202C8
:100FB000114300284FEA0111B8BF00F00F0000F103
:100FC000E020B4BF80F8141D80F8001430BC7047D6
:100FD0000CED00E0074900F007004FF6FF030A6838
:100FE0001A4042EA002040F0FD7040F08060086046
:100FF000704700000CED00E02DE9F84F0446007842
:10100000DFF824844FF0000910F0010FCA4610D019
:10101000D8F8000020F40000C8F80000D8F800005C
:10102000616B0843C8F80000606B002808BF4FF0F0
:101030000109FE4D206810F4002F10D0E06B2968E4
:1010400021F4401108432860E06BB0F5801F08BF11
:101050004FF0010903D0002808BF4FF0010A2068B3
:1010600010F4801F10D0206C296821F4400108433F
:101070002860206CB0F5800F08BF4FF0010903D045
:10108000002808BF4FF0010A206810F0807F18BFC9
:101090004FF0010910F0200F60D0E548016841F0E1
:1010A000805101600068E34F00F080500090386884
:1010B00040F480703860FFF71BFF0646386810F474
:1010C000807F09D1FFF714FF801B642800F24D8355
:1010D000386810F4807FF5D0D74F386810F440702E
:1010E00028D0218E01F44071814223D038683968BC
:1010F00020F4407041F480313960396821F4803146
:1011000039603860386810F0010F13D0FFF7F0FE37
:101110000646386810F0020F08BF41F2883B09D13B
:10112000FFF7E6FE801B584500F21F83386810F079
:10113000020FF5D0206B4FF4407181431CBFD8F8EB
:10114000000020F4F81000F0F58000BFC8F800009F
:10115000208E3968C0F30B0008433860207810F007
:10116000100F07D0286820F0807028602868A16BD5
:10117000084328602188B14811F4804F05D0616E82
:10118000026822F4403211430160218811F4004FBB
:1011900005D0A16E026822F440221143016021684B
:1011A00011F4803F05D0E16E026822F44012114331
:1011B0000160216811F4003F05D0216F026822F41C
:1011C000400211430160217811F0400F05D0616C9D
:1011D000026822F0030211430160217811F0800FB0
:1011E00005D0A16C026822F00C0211430160218835
:1011F00011F4807F05D0E16C026822F030021143C7
:101200000160218811F4007F05D0216D026822F071
:10121000C00211430160218811F4806F05D0616D17
:10122000026822F4407211430160218811F4006FBA
:1012300005D0A16D026822F440621143016021884B
:1012400011F4805F05D0E16D026822F44052114331
:101250000160218811F4005F05D0216E026822F43C
:10126000404211430160216811F4800F05D0A16F45
:10127000026822F0806211430160216811F4001FAE
:101280000BD0E16F026822F0006211430160E16F50
:10129000B1F1006F08BF4FF0010A216811F0080F8B
:1012A00018BF4FF0010A11F4802F05D0616F02685A
:1012B00022F0407211430160216811F4000F06D042
:1012C000D4F88010026822F0805211430160216836
:1012D00011F0806F06D0D4F88410026822F000521A
:1012E00011430160206810F0006F06D0D4F8880028
:1012F000296821F0007108432860206810F0805FA1
:1013000006D0D4F88C00296821F080610843286059
:10131000B9F1010F47F6C0794FF440364FF07067CE
:101320004FF0E0481CBF2068B0F1007F0DD000F006
:101330002CB900BFD8F8001020F4407020F07040A5
:1013400021F4F81141EA000000E73D48016821F06E
:1013500080610160FFF7CCFD83463948006810F0DA
:10136000006F0BD0FFF7C4FDA0EB0B00642800F268
:10137000FC813348006810F0006FF3D1207810F042
:10138000010F34D0606B90BB2E4A106896FAA6F11C
:10139000126897FAA7F300F44030D4F804C0B1FA09
:1013A00081F199FAA9FBC84002F07061B3FA83F2A7
:1013B00096FAA6FEBBFA8BF3BEFA8EFBD14097FAE3
:1013C000A7FE0CFA03F2BEFA8EF3D4F808C000FAB6
:1013D0000BF098FAA8FEDFF86CB010439940BEFA03
:1013E0008EF208430CFA02F10843CBF800002068A3
:1013F00010F4002F03D0E16BB1F5801F06D010F47C
:10140000801F4CD0206CB0F5800F48D10D49086882
:1014100096FAA6F2096800F44030B2FA82F296FA1F
:10142000A6FC99FAA9FB0FE0083802408C3802406C
:10143000403802400070004070380240903802404E
:101440000038024084380240D04097FAA7F263681F
:10145000BCFA8CFCB2FA82FEBBFA8BFB98FAA8F2BB
:1014600000FA0CF003FA0BF301F0E041D4F80CB0F1
:10147000B2FA82F298FAA8FCD1401843C04BBCFAE9
:101480008CFC0BFA0EF2104301FA0CF108431860C1
:101490002868616A20F01F02481E104328602068F7
:1014A00010F0807F33D0B64A106897FAA7F112681F
:1014B00096FAA6FB00F07060B1FA81F199FAA9FCE6
:1014C000C8400090BBFA8BFB2169BCFA8CFC6068B9
:1014D00098FAA8F302F0E04201FA0BF100FA0CF0DE
:1014E00097FAA7FB40EA010E0098B3FA83F3A449E8
:1014F000BBFA8BFC98FAA8FBDA4000FA0CF3BBFAB3
:101500008BF04EEA030302FA00F0184308602068EB
:1015100010F0007F20D099FAA9F1606896FAA6F33E
:10152000D4F808E0D4E903C2B1FA81F1B3FA83F345
:1015300000FA01F197FAA7FB91489A40BBFA8BF3A6
:1015400098FAA8FB11430CFA03F2BBFA8BF3114390
:101550000EFA03F2114301608A48016841F080618C
:101560000160FFF7C5FC83468648006810F0006FF5
:101570000BD100BFFFF7BCFCA0EB0B0064287CD8AC
:101580008048006810F0006FF4D0BAF1000F75D0F9
:10159000DFF8F0A1DAF8000020F08050CAF800006F
:1015A000FFF7A6FC8346DAF8000010F0005F0AD0CF
:1015B000FFF79EFCA0EB0B0064285ED8DAF8000071
:1015C00010F0005FF4D1206810F4002F01D0E16B1F
:1015D00021B110F4801F3CD0206CD0BB6A49086850
:1015E00096FAA6F2096800F44030B2FA82F2636912
:1015F00096FAA6FCD04099FAA9FB97FAA7F2BCFA92
:101600008CFCB2FA82FEBBFA8BFB98FAA8F200FAC5
:101610000CF003FA0BF301F0E041D4F818B0B2FA81
:1016200082F298FAA8FCD1401843574B0BFA0EF2FD
:10163000BCFA8CFC104301FA0CF1084318606FF0FF
:10164000FF0B2868A16A20F4F8500BEB0121084336
:101650002860206810F4001F39D0E06FB0F1006FEF
:1016600035D14949086897FAA7F3096898FAA8F2AA
:1016700099FAA9FCB2FA82F201E076E07DE096FAEE
:10168000A6FB00F07060B3FA83F3BBFA8BFED4F8CC
:1016900020B0D8406369BCFA8CFC0BFA0EFB97FAB9
:1016A000A7FE03FA0CF301F0E041BEFA8EFC98FAB3
:1016B000A8FED14000FA0CF243EA0B0B324BBEFA03
:1016C0008EF04BEA020201FA00F010431860207815
:1016D00010F0080F36D02C480268016896FAA6F37D
:1016E00096FAA6FCD4F814B001F44031B3FA83F3AF
:1016F00097FAA7F699FAA9F9D94002F07062B6FAFA
:1017000086F3B9FA89F6DA40BCFA8CFC0BFA06F3D8
:1017100097FAA7F701FA0CF6B7FA87F1D4F81CC0CC
:1017200098FAA8F702FA01F1B7FA87F2334319439E
:101730000CFA02F2114301602868E16A20F440309B
:1017400008432860DAF8000040F08050CAF8000032
:10175000FFF7CEFB0446DAF8000010F0005F0CD172
:10176000FFF7C6FB001B642802D90320BDE8F88FF1
:10177000DAF8000010F0005FF2D00020BDE8F88F2A
:101780008438024000380240883802402DE9F04792
:10179000DFF8E48106460F46D8F8000000F00F009D
:1017A000B8420CD2D8F8000020F00F003843C8F837
:1017B0000000D8F8000000F00F00B84272D1307875
:1017C0006E4D10F0020F05D0B068296821F0F001CD
:1017D00008432860307810F0010F50D070686849D5
:1017E000012821D00968022823D011F0020F59D016
:1017F000296821F0030108432860FFF779FB0446BC
:10180000706841F28839012817D00228286800F052
:101810000C0022D000B300BFFFF76AFB001B484555
:1018200029D90320BDE8F087096811F4003FDFD112
:1018300038E011F0007FDBD134E0286800F00C00C4
:1018400004281CD0FFF754FB001B4845E9D8286842
:1018500000F00C000428F5D111E008280FD000BFDB
:10186000FFF746FB001B4845DBD8286800F00C005A
:101870000828F5D103E0286810F00C0FCCD1D8F877
:10188000000000F00F00B8420FD9D8F8000020F097
:101890000F003843C8F80000D8F8000000F00F002F
:1018A000B84202D00120BDE8F087307810F0040F74
:1018B00005D0F068296821F4E051084328603078A9
:1018C00010F0080F06D03069296821F4604141EA20
:1018D000C00028602B48296811F00C0138D02A4B31
:1018E000042908BF184633D0082931D1274947F6C3
:1018F000C07C0A680C6802F03F0214F4800F0CD020
:101900000868B3FBF2F29CFAACF300EA0C00B3FAFD
:1019100083F3D84002FB00F20CE00B68B0FBF2F05E
:101920009CFAACF203EA0C03B2FA82F223FA02F256
:1019300000FB02F208684FF4403393FAA3F100F47D
:101940004030B1FA81F1C840401C4000B2FBF0F0D9
:101950002968F02292FAA2F201F0F001B2FA82F2C2
:10196000D1400B4A515CC8400A4908600F20FFF77C
:10197000DFFA0020BDE8F087003C02400838024052
:10198000003802400024F40040787D010438024011
:10199000805200081800022008484FF4E052016805
:1019A00092FAA2F2064801F4E051B2FA82F2D14072
:1019B000044A0068515CC840704700000838024083
:1019C000180002209052000808484FF46042016855
:1019D00092FAA2F2064801F46041B2FA82F2D140D2
:1019E000044A0068515CC840704700000838024053
:1019F000180002209052000821492248096811F07D
:101A00000C0108BF7047204B042904BF18467047DB
:101A1000082918BF70474DF8044D47F6C0711B4A9E
:101A2000D2F800C014680CF03F0C14F4800F0BD0F7
:101A30001068B3FBFCF391FAA1FC0840BCFA8CF1EE
:101A4000C84003FB00F00AE01368B0FBFCF091FA19
:101A5000A1FC1940BCFA8CF3D94000FB01F01168DD
:101A60004FF440335DF8044B93FAA3F201F4403194
:101A7000B2FA82F2D140491C4900B0FBF1F0704744
:101A8000083802400024F40040787D010438024008
:101A90002DE9F84FF74F05460078A7F1040810F03C
:101AA000010FA8F1040659D0386800F00C00042892
:101AB00009D0386800F00C0008280DD1D8F80000D3
:101AC00010F4800F08D0306810F4003F46D06868EA
:101AD000002800F0CB8141E06868B0F5803F04BF8A
:101AE000306840F480300AD010B1B0F5A02F11D08A
:101AF000306820F480303060306820F4802030601E
:101B00006868D0B1FFF7F4F90446306810F4003F7C
:101B100008D023E0306840F480203060306840F422
:101B20008030ECE7FFF7E4F9001B642800F237810E
:101B3000306810F4003FF5D010E0FFF7D9F9044603
:101B4000306810F4003F09D0FFF7D2F9001B642879
:101B500000F22581306810F4003FF5D1287810F0AC
:101B6000020F5CD038684FF0F80910F00C0F18D055
:101B7000386800F00C00082804BFD8F8000010F402
:101B8000800F0ED0E8680028306834D040F00100A3
:101B90003060FFF7ADF90446306810F0020F15D041
:101BA0001DE0306810F0020F1CBFE868012840F00B
:101BB0005D812869316899FAA9F2B2FA82F221F0BE
:101BC000F80100FA02F041EA000012E0FFF790F994
:101BD000001B02287ED8306810F0020FF6D0296969
:101BE000306899FAA9F2B2FA82F220F0F800914036
:101BF0000843306013E020F001003060FFF778F90F
:101C00000446306810F0020F09D000BFFFF770F9EA
:101C1000001B02285ED8306810F0020FF6D1287839
:101C200010F0080F34D0DFF8509268690028D9F816
:101C3000000016D040F00100C9F80000FFF758F985
:101C40000446D9F8000010F0020F21D1FFF750F937
:101C5000001B02283ED8D9F8000010F0020FF5D082
:101C600016E020F00100C9F80000FFF741F9044632
:101C7000D9F8000010F0020F0AD000BFFFF738F9C2
:101C8000001B022826D8D9F8000010F0020FF5D169
:101C9000287810F0040F69D07848016841F080512D
:101CA00001600068DFF8D89100F080500090D9F80A
:101CB000000040F48070C9F80000FFF719F90446ED
:101CC000D9F8000010F4807F0CD100BFFFF710F9A5
:101CD000001B00E063E0642861D8D9F8000010F42C
:101CE000807FF3D0A868674C012804BF206840F0CB
:101CF000010009D008B1052813D0206820F00100A8
:101D00002060206820F004002060A86841F2883A32
:101D1000D0B1FFF7EDF88146206810F0020F08D02F
:101D200024E0206840F004002060206840F00100BA
:101D3000EAE7FFF7DDF8A0EB090050452FD820684F
:101D400010F0020FF5D011E0FFF7D2F881462068BD
:101D500010F0020F0AD000BFFFF7CAF8A0EB09008D
:101D600050451CD8206810F0020FF5D1A869E8B3DF
:101D7000396801F00C01082978D00228306820F079
:101D8000807030600ED0FFF7B3F80446306810F072
:101D9000007F68D0FFF7ACF8001B02285FD9032052
:101DA000BDE8F88FFFF7A4F80446306810F0007F14
:101DB00009D000BFFFF79CF8001B0228EFD830685D
:101DC00010F0007FF6D1D5E909C147F6C0704FF099
:101DD000FF324FF4403790FAA0F497FAA7F002EBE5
:101DE00051074FF07069B4FA84F100E03BE0D5E9A7
:101DF0000732B0FA80F00CFA01FA07FA00F043EA71
:101E0000020199FAA9F74FF0E0444AEA0003D5E944
:101E10000BC294FAA4F4B7FA87F019430CFA00F055
:101E2000B4FA84F3084302FA03F10843C8F8000047
:101E3000306840F080703060FFF75AF80446306830
:101E400010F0007F0FD100BFFFF752F8001B0228EF
:101E5000A5D8306810F0007FF6D004E006E03068C6
:101E600010F0007F96D10020BDE8F88F0120BDE87A
:101E7000F88F0000083802407438024040380240B1
:101E8000007000407038024004284FF0E0200169E3
:101E90000CBF41F0040121F0040101617047000012
:101EA000401EB0F1807F24BF012070474FF0E02139
:101EB0004861F020034A82F8140D0020072288614F
:101EC0000A6170470FE000E070477047002804BFC8
:101ED0000120704710B5044690F83900002804BF6F
:101EE000204600F00DF8022084F839002068211DFA
:101EF00001F08EF8012084F83900002010BD0000A8
:101F0000094808B5016841F0020101600068032238
:101F1000012100F0020000901D20FFF72BF8BDE822
:101F200008401D20FFF719B8403802400168CA6810
:101F300042F00102CA600068016841F001010160DD
:101F400000207047704770B504460068002501699D
:101F500011F0020F1CBFC16811F0020F13D0012154
:101F60006FF00202026121762068806910F0030F91
:101F7000204602D0FFF7E6FF04E000F0A6F8204676
:101F800000F0A4F825762068016911F0040F1CBF49
:101F9000C16811F0040F13D002216FF00402026136
:101FA00021762068806910F4407F204602D0FFF738
:101FB000C9FF04E000F089F8204600F087F8257694
:101FC0002068016911F0080F1CBFC16811F0080FEB
:101FD00013D004216FF00802026121762068C069E5
:101FE00010F0030F204602D0FFF7ACFF04E000F032
:101FF0006CF8204600F06AF825762068016911F037
:10200000100F1CBFC16811F0100F13D008216FF022
:102010001002026121762068C06910F4407F2046DA
:1020200002D0FFF78FFF04E000F04FF8204600F0E9
:102030004DF825762068016911F0010F1CBFC168B9
:1020400011F0010F05D06FF001010161204600F091
:102050003FF820686FF08005016911F0800F1CBF08
:10206000C16811F0800F03D005612046FFF72CFFF7
:102070002068016911F4807F1CBFC16811F0800FD6
:1020800003D005612046FFF71FFF2068016911F0AA
:10209000400F1CBFC16811F0400F05D06FF0400128
:1020A0000161204600F03CF82068016911F0200F22
:1020B0001ABFC16811F0200F70BD6FF020010161DF
:1020C0002046BDE87040FFF700BF70477047000032
:1020D0000849884218BF704710B5074C07A02178FF
:1020E00001F078FA0848018808A001F073FA00208E
:1020F000207010BDC4D302202C0002206672616DD6
:10210000653A25640D0A0000080002206A706567C0
:102110005F646174615F6C656E3A25640D0A00004E
:102120007047704770B5016804462025C8690A6881
:102130008B6810F00F0F5CD040F2011C13EA0C0FFB
:1021400000F0FB8010F0010F18BF12F4807F07D061
:102150004FF0010CC1F820C0E16E41F00101E166D1
:1021600010F0020F18BF13F0010F08D0D4F800C010
:102170000221CCF82010E16E41F00401E16610F07C
:10218000040F18BF13F0010F08D0D4F800C00421C9
:10219000CCF82010E16E41F00201E16610F0080F6A
:1021A0000CD002F0200103F00103194306D023688C
:1021B00008211962E16E41F00801E166E16E002933
:1021C00008BF70BD10F0200F18BF12F0200F0BD009
:1021D00094F86A202046B4F85C10222A48D020687F
:1021E000816941F008018161E06E10F0080F76D13D
:1021F00070E010F0200F18BF12F0200F69D094F893
:102200006A302046B4F85C20222B04D0886940F064
:102210000800886170BD8368B3F5805F04BF0369FF
:10222000002B4B6A416D03EA02021CD001F101034D
:1022300043650A70B0F85A10A1F101010904090CB4
:10224000A0F85A1018BF70BD01680A6822F4907295
:102250000A6001688A6822F001028A6080F86A5088
:1022600000F0D1F970BD0A80416D891C4165E1E73C
:102270008268B2F5805F04BF0269002A0368426D7C
:102280005B6A1FD002F1010CC0F854C003EA0101DF
:1022900082F80010B0F85A10A1F101010904090CEC
:1022A000A0F85A10A0D101680A6822F490720A605E
:1022B00001688A6822F001028A6080F86A5000F0A2
:1022C000A2F991E719401180416D891C4165E1E750
:1022D00005E032E02068806810F0400F27D02068C9
:1022E000016821F4907101602068816821F001018A
:1022F000816084F86A502068816811F0400F12D024
:10230000816821F040018160606E60B12E490165F5
:10231000606EFEF758FB002808BF70BD606E016D4F
:10232000BDE8704008472046FFF7FBFE70BD204621
:10233000FFF7F7FE0020E06670BD10F0800F18BFB9
:1023400012F0800F30D094F86900212818BF70BDBA
:10235000B4F85200A8B1A068B0F5805F04BF20694E
:102360000028E06C17D000F10101E16421680078D9
:10237000C1F82800B4F85200A0F10100A4F85200FE
:1023800070BD086820F0800008602068016841F096
:102390004001016070BD0088C0F308008862E06CF5
:1023A00000F10200E064E5E710F0400F14BF12F006
:1023B000400F70BD0A68204622F040020A6084F88F
:1023C000695000F021F970BD0F320008002804BFE9
:1023D0000120704710B5044690F8690028B9002024
:1023E00084F86800204600F029F8242084F8690069
:1023F0002068016821F001010160204600F012FF11
:10240000012808BF10BD606A00281CBF204600F0EC
:1024100061FE2068416821F4904141602068816834
:1024200021F02A0181602068016841F0010101600A
:102430002046BDE8104000F0BABE000010B50446CA
:10244000006886B0A0F18041B1F588311CBF06B0AC
:1024500010BD1748016841F002010160006800F0FA
:10246000020005901348016841F010010160006806
:10247000022100224FF0040C00F01000059003230D
:102480004FF440408DE80F100B486946FEF7F6FB0D
:102490002068016841F0200101602520FEF75DFD04
:1024A000032225201146FEF765FD06B010BD000091
:1024B0003038024044380240000402402DE9F05F09
:1024C000044690F86A001D4617460E46202868D13B
:1024D000002E12BF002F0120BDE8F09F94F8680085
:1024E00001285ED0012084F8680022214FF0000B03
:1024F000C4F86CB084F86A10FEF7FAFC8046A06855
:10250000FF21A4F85870B0F5805FA4F85A7006D087
:102510004FF07F0250B1B0F1805F0CD012E0206923
:10252000002808BF40F2FF1002D109E02069B8BBC3
:10253000A4F85C1006E02069002818BF3F2031D0C5
:10254000A4F85C00B4F85C9009F0FF0AB4F85A00F3
:10255000401EA4F85A0020682027C06937EA00000E
:1025600028D000BFB5F1FF3F1FD02DB1FEF7C0FC52
:10257000A0EB0801A94218D3216820200A6822F4A0
:10258000D0720A6021688A6822F001028A6084F8A9
:10259000690084F86A00032084F868B0BDE8F09F01
:1025A00000E02CE0A4F85C20CCE72068C06937EAA2
:1025B0000000D7D1A068B0F5805F04BF2069002873
:1025C00014D02068406A00EA0A0006F8010B00BF38
:1025D000B4F85A000028B9D14FF0200084F86A00FE
:1025E0004FF0000084F868B0BDE8F09F21683046E5
:1025F00006F10206496A01EA09010180E8E74FF0A5
:102600000200BDE8F09F70477047FEE7704700008A
:1026100070B508495FF0000401EBC00505EB44000C
:102620004178007800F0F2FB601CC4B2042CF5D3B2
:1026300070BD00003E54000810B500210446FF2084
:1026400000F0E4FB00217C2000F0E0FB04217D2071
:1026500000F0DCFB09217C2000F0D8FB2007010EF4
:102660007D2000F0D3FB0021BDE810407D2000F06C
:10267000CDBB10B501210446FF2000F0C7FB12209E
:1026800000F0A4FA002C20F0020118BF41F0020172
:102690001220BDE8104000F0B9BB0001203010B599
:1026A000C0B240F008040021FF2000F0AFFB002181
:1026B0007C2000F0ABFB02217D2000F0A7FB032172
:1026C0007C2000F0A3FB7D20214600F09FFB2146EB
:1026D000BDE810407D2000F099BB70B54FF020059B
:1026E00000282C4604BF182534240DD0012804BF2F
:1026F0001C252A2408D0032804BF2425162403D02F
:10270000042804BF28250C240021FF2000F07EFBB4
:1027100000217C2000F07AFB04217D2000F076FB74
:1027200007217C2000F072FB20217D2000F06EFB51
:102730007D20294600F06AFB7D20214600F066FBE3
:10274000BDE8704006217D2000F060BB70B50D46ED
:1027500004460021FF2000F059FB0421E02000F096
:1027600055FBC020C4F3C70100F050FBC120C5F3E6
:10277000C70100F04BFB6007802105F0070242EA29
:10278000906001EA141101438C2000F03FFB00210E
:10279000E02000F03BFB002070BD2DE9F04112F07D
:1027A000030F0D4606461CBF0120BDE8F08113F063
:1027B000030F1CBF0220BDE8F08194089F08002190
:1027C000FF2000F023FB0421E02000F01FFB51203C
:1027D000E1B200F01BFB5220F9B200F017FB5320CE
:1027E000F1B200F013FB5420E9B200F00FFB7022AD
:1027F0004FF0800802EA1513082108EA570001EAA1
:10280000541218431043C6F302210143552000F02F
:10281000FDFA572008EA940100F0F8FA0021E020C0
:1028200000F0F4FA0020BDE8F0810000F0B5434D5F
:1028300000248DB0286840F0010028602868012637
:1028400003213F4F00F001000690F003CDE901069F
:10285000CDE9036101A93846FEF710FA002008907F
:1028600009900A90286840F004002860286806A9AA
:10287000344D00F004000B900420CDE906062846F4
:10288000FEF7FCF9002228460421FEF72CFB0A2063
:1028900001F0FAF800223846F103FEF724FB0A2083
:1028A00001F0F2F801223846D103FEF71CFB00F0DC
:1028B00067F90121FF2000F0A9FA8021122000F021
:1028C000A5FA322001F0E0F81C2000F07FF94FF665
:1028D000FF7505EA00261D2000F078F940EA0601A0
:1028E000A1F5FE40A23805D017A000F073FE0DB090
:1028F0000120F0BD0A2000F069F905EA00250B204F
:1029000000F064F940EA0501A1F51850423808BF0B
:10291000104D05D010A000F05DFE0DB00220F0BDFE
:1029200005EB44004178007800F070FA601C84B236
:10293000B22CF5D30DB00020F0BD000030380240BD
:1029400000000240000802404D49443A25640D0A47
:1029500000000000A05200084849443A25640D0ACE
:102960000000000070B50D4D5FF0000405EB440061
:102970004178007800F04AFA601C84B2082CF5D344
:10298000074D002405EB44004178007800F03EFA42
:10299000601C84B2072CF5D370BD00002E540008D3
:1029A0000454000870B54FF05E054FF041064FF03B
:1029B000540460B1022804BF65254F2414D00328B5
:1029C00004BF522566240FD004280AD00CE0002151
:1029D000FF2000F01BFABDE870401021C72000F076
:1029E00015BA42253F2671240021FF2000F00EFA7F
:1029F0004021C72000F00AFACC20294600F006FA50
:102A0000CD20314600F002FA2146BDE87040CE20CC
:102A100000F0FCB910F0030F1CBF0120704711F04B
:102A2000030F1CBF0220704770B584088D08002179
:102A3000FF2000F0EBF90421E02000F0E7F95A2034
:102A4000E1B200F0E3F95B20E9B200F0DFF9042124
:102A500001EA9511C4F3012001435C2000F0D6F98E
:102A60000021E02000F0D2F9002070BD70B5074DC4
:102A70005FF0000405EB44004178007800F0C6F9EF
:102A8000601C84B20E2CF5D370BD000012540008F7
:102A900070B5802600243546072817D2DFE800F0FD
:102AA000160406080C0F130040240FE018240DE054
:102AB00018244026C02509E01824402601E01824E7
:102AC000A026402502E018244026A6250021FF204C
:102AD00000F09CF900217C2000F098F97D2021462F
:102AE00000F094F905217C2000F090F97D2031461A
:102AF00000F08CF92946BDE870407D2000F086B9D1
:102B00002DE9F04100EB52060C4601EB5307054658
:102B10000121FF2000F07AF9032000F057F807F0B8
:102B20000302214600F0F00062F39F0101430320FD
:102B300000F06CF91920C4F3870100F067F91A203E
:102B4000C7F3870100F062F9322000F03FF806F089
:102B50000702294600F0C00062F3DF010143322082
:102B600000F054F91720C5F3C70100F04FF9C6F380
:102B7000C701BDE8F041182000F048B970470000D7
:102B8000104810B586B0016841F00201016000688C
:102B900002220D4C182100F0020005900120CDE921
:102BA0000202CDE9001069462046FEF767F820686A
:102BB00020F0C0002060206840F04000206006B097
:102BC00010BD0000303802400004024070B5654C72
:102BD0000122082105462046FEF785F901222046FC
:102BE0001021FEF780F9322000F072FF002220460B
:102BF0000821FEF778F9322000F06AFF0022204613
:102C00001021FEF770F9602000F0AEF8642000F0AB
:102C10005FFF284600F0A8F8642000F059FF00226A
:102C200020460821FEF75FF9322000F051FF012213
:102C300020461021FEF757F9322000F049FF01220B
:102C400020460821FEF74FF9322000F041FF6420B2
:102C500000F03EFF012220460821FEF744F9012240
:102C600020461021FEF73FF9322000F031FF00220C
:102C700020460821FEF737F9322000F029FF002214
:102C800020461021FEF72FF9612000F06DF8642036
:102C900000F01EFF20680025082620F0C0002060FC
:102CA00020682060322000F013FF0122204610210E
:102CB000FEF719F968060821050E2046FEF70AF905
:102CC00000281CBF681CC5B2322000F001FF0022A2
:102CD00020461021FEF707F9701E10F0FF06E1D123
:102CE000206820F0C0002060206840F04000206094
:102CF000322000F0EDFE012220460821FEF7F3F815
:102D0000012220461021FEF7EEF8322000F0E0FE0E
:102D1000002220461021FEF7E6F8322000F0D8FE0F
:102D2000002220460821FEF7DEF8322000F0D0FE17
:102D3000002220460821FEF7D6F8322000F0C8FE17
:102D4000012220461021FEF7CEF8322000F0C0FE0E
:102D5000012220460821FEF7C6F8322000F0B8FE16
:102D6000284670BD0004024070B5274E0024054679
:102D700015F0800F05D0012230460821FEF7B3F888
:102D800004E0002230460821FEF7ADF86806050E83
:102D9000322000F09DFE012230461021FEF7A3F8FC
:102DA000322000F095FE002230461021FEF79BF8FD
:102DB000601CC4B2082CDBD3306820F0C000306047
:102DC00030683060322000F083FE0122304610214E
:102DD000FEF789F8322000F07BFE08213046FEF72E
:102DE00079F8002814BF0124002400223046102165
:102DF000FEF779F8306820F0C0003060306840F0AD
:102E000040003060204670BD000402402DE9F041D2
:102E1000284D002401220E46082107462846FEF7C9
:102E200062F8012228461021FEF75DF8322000F0FA
:102E30004FFE002228460821FEF755F8322000F008
:102E400047FE002228461021FEF74DF86020FFF7CC
:102E50008BFF002818BF0124642000F039FE38469B
:102E6000FFF782FF002818BF0124642000F030FE25
:102E70003046FFF779FF002818BF012400222846BA
:102E80000821FEF730F8322000F022FE0122284609
:102E90001021FEF728F8322000F01AFE0122284601
:102EA0000821FEF720F8322000F012FE2046BDE88F
:102EB000F0810000000402407047FEF71FB80000D8
:102EC00030B5B9B0002590212D9502A832952C95EA
:102ED0003095379526952795289529952A95FDF7BC
:102EE000D0F92148016841F080510160006800F08C
:102EF000805001901D48016821F4404141F4004197
:102F000001600068022410212B94A823319400F45E
:102F1000404001900120369408223392CDE93434A8
:102F2000CDE92E012BA8FEF7B3FD00B1FEE74FF46B
:102F3000805228954FF4A0510F20CDE92912CDE9F8
:102F40002604052126A8FEF721FC00B1FEE74FF478
:102F5000A07013951595029002A8FEF74DF8002871
:102F600004BF39B030BDFEE7403802400070004079
:102F7000124A30B4124813680021DFF848C043F405
:102F8000700313600468031D0F4A44F001040460D9
:102F9000CCF8001004680CF1040C24F41025D405BE
:102FA00025F0807505601A600368084A23F48023C1
:102FB0000360CCF80010146030BC704788ED00E06E
:102FC00000380240083802401030002408ED00E0CC
:102FD0000148FEF7B8BF0000C4D3022010B50A4C68
:102FE0002068C06810F0010F09D0084800698047C8
:102FF00022680021642051622168C862E0606FF09D
:1030000001002168086110BD00D40220E800022000
:10301000F0B4DFF8ACC02B4C2B4D604502682B4E52
:103020002B4B18BFB0F1804F07D0A04218BFA84269
:1030300003D0B04218BF984204D14F6822F070020A
:1030400047EA0202604518BFB0F1804F25D0A04288
:1030500018BFA84221D0B04218BF98421DD0A0F19D
:103060008044B4F5A0341CBFA0F18044B4F5A23470
:1030700013D0A0F18044B4F5A4341CBFA0F1804467
:10308000B4F5C05409D0A0F18044B4F5E0541CBF9D
:10309000A0F18044B4F5005403D1CC6822F440720E
:1030A000224302608A686045C2620A68826212BF77
:1030B0009842096901634FF001014161F0BC70471A
:1030C000000001400004004000080040000C0040E7
:1030D0000004014090F8241011F0010F06D001689F
:1030E000826A4B6823F400331A434A6090F8241034
:1030F00011F0020F06D00168C26A4B6823F48033D6
:103100001A434A6090F8241011F0040F06D00168A9
:10311000026B4B6823F480231A434A6090F8241012
:1031200011F0080F06D00168426B4B6823F400438E
:103130001A434A6090F8241011F0100F06D001686D
:10314000826B8B6823F480531A438A6090F82410B2
:1031500011F0200F06D00168C26B8B6823F4005376
:103160001A438A6090F8241011F0400F11D00168C2
:10317000026C4B6823F480131A434A60016CB1F56A
:10318000801F06D10168426C4B6823F4C0031A43C8
:103190004A6090F8241011F0800F08BF7047016852
:1031A000806C4A6822F40022104348607047F8B5EA
:1031B00000250446C566FDF79BFE074620686FF0B4
:1031C0007E46006810F0080F08D000223B464FF4FE
:1031D00000112046009600F083F968B92068006865
:1031E00010F0040F0AD000223B464FF48001204625
:1031F000009600F075F908B10320F8BD202084F88E
:10320000690084F8685084F86A000020F8BD10B5A1
:10321000806B0021A0F85A10A0F85210FEF781FF31
:1032200010BD00002DE9F041D0F81CC004468168B3
:103230000068D4E90452A64B0D430768102142EA06
:103240000C0C002245EA0C0C15461F40A14B47EA26
:103250000C0CC0F800C02068D4F80CC0476827F4F4
:10326000405747EA0C0CC0F804C02068D4F818C0D6
:10327000D4F8208087684CEA080C27F4306747EAC6
:103280000C0CC0F808C02068A0F18046B6F588365E
:1032900023D0A0F1804CBCF5884C29D0A0F1804C03
:1032A000BCF5904C2FD0A0F1804CBCF5984C35D09B
:1032B000A0F1804CBCF5A04C3BD0A0F1804CBCF5FB
:1032C0008A3C44D0A0F1804CBCF5F04C4FD0A0F12A
:1032D000804CBCF5F84C58D06CE01B6813F003032D
:1032E00043D0012B63D0022B5FD0032B61D061E070
:1032F0001B6813F00C0356D0042B58D0082B54D065
:103300000C2B56D056E01B6813F030034BD0102B1B
:103310004DD0202B49D0302B4BD04BE01B6813F005
:10332000C00340D0402B42D0802B3ED0C02B40D099
:1033300040E01B6813F4407335D0B3F5807F36D07E
:10334000B3F5007F31D0B3F5407F32D032E01B6857
:1033500013F4406309D0B3F5806F28D0B3F5006F44
:1033600023D0B3F5406F24D024E0012122E01B6874
:1033700013F4405317D0B3F5805F18D0B3F5005F56
:1033800013D0B3F5405F14D014E01B6813F440432E
:1033900009D0B3F5804F0AD0B3F5004F05D0B3F58F
:1033A000404F06D006E0002104E0022102E00421A3
:1033B00000E00821E369B3F5004F08D0092977D26E
:1033C000DFE801F0495561816A818181770009292F
:1033D00038D2DFE801F005101B37233737372E00CE
:1033E000FEF7DAFA01466068490001EB5001B1FBD3
:1033F000F0F082B227E0FEF7E7FA01466068490084
:1034000001EB5001B1FBF0F082B21CE06068324980
:1034100001EB5001B1FBF0F082B214E0FEF7ECFAE0
:1034200001466068490001EB5001B1FBF0F082B247
:1034300009E060684FF4803101EB5001B1FBF0F01E
:1034400082B200E00125216822F00F00C2F342029F
:103450001043C86038E0FEF79FFA0146D4E9002027
:1034600001EB5001B1FBF0F080B2D0602CE0FEF730
:10347000ABFA0146D4E9002001EB5001B1FBF0F0BA
:1034800080B2D06020E06168144A02EB5102B2FBC6
:10349000F1F189B2C16017E0FEF7AEFA0146D4E956
:1034A000002001EB5001B1FBF0F080B2D0600BE0E6
:1034B00009E061684FF4004202EB5102B2FBF1F106
:1034C00089B2C16000E001252846BDE8F081000016
:1034D000F369FFEF903802400048E8010024F4004F
:1034E0002DE9F0410446006898461546069F0E46B1
:1034F000C06931EA00000CBF01200020A84227D19A
:10350000B7F1FF3F1BD02FB1FDF7F2FCA0EB080095
:10351000B84214D3206820210022036823F4D0731A
:1035200003602068836823F00103836084F86910D6
:1035300084F86A10032084F86820BDE8F0812068D0
:10354000C06936EA00000CBF01200020A842D7D095
:103550000020BDE8F08100001A4838B50068C06955
:1035600010F0200F28D0174801224FF47A736946D3
:10357000FEF7A4FF1448018811F4004F1CD19DF8F8
:10358000002011F4804F4FF0000305D00A2A08BF35
:1035900041F4004114D00EE00D2A08BF41F48041EF
:1035A0000ED00A4CC1F30D0C491C89B2C72904F88E
:1035B0000C20018000D903800248FEF7B3FD38BD1E
:1035C0000180F9E7A4D2022024000220DCD10220ED
:1035D000FEE700000FB4054B10B503A9044A02989A
:1035E00000F01CF810BC5DF814FB0000093B00085B
:1035F000280002200021016041600181704702E043
:1036000008C8121F08C1002AFAD17047704700206D
:1036100001E001C1121F002AFBD170472DE9FF4FC5
:103620008DB00F460546002606E025280BD0DDE9C3
:103630000F1290476D1C761C28780028F5D111B028
:103640003046BDE8F08F0024A246A1460122E94998
:1036500000E0044315F8013F203B02FA03F0084262
:10366000F7D128782A2810D06FF02F022878A0F1FF
:103670003001092914D80AEB8A0102EB410144F018
:10368000020400EB010A6D1CF0E701CF5FEA000ABB
:1036900003D544F40054CAF1000A44F002046D1C3E
:1036A00028782E2817D115F8010F44F004042A2891
:1036B0000ED06FF02F022878A0F1300109290AD826
:1036C00009EB890102EB410100EB01096D1CF2E7F6
:1036D00057F8049B6D1C28786C280FD006DC4C280A
:1036E00017D068280DD06A2814D104E0742810D0AF
:1036F0007A280FD10DE044F400140AE044F4801459
:1037000001E044F440146978814202D104F5801448
:103710006D1C6D1C28786E281ED00CDC632830D000
:1037200004DC00288BD0582811D19FE0642867D092
:1037300069280CD164E073282DD004DC6F2872D086
:10374000702804D194E075286ED078286DD0DDE91A
:103750000F129047761C4BE1C4F30250022806D0AA
:10376000032809D0042801CF09D0066040E101CF29
:10377000F117C0E900613BE101CF068038E1067036
:1037800036E117F8040B8DF8000000208DF80100D9
:10379000EB46012003E057F804BB4FF0FF30610710
:1037A0004FF0000102D40DE008F1010188464945BF
:1037B0000FDA8045F8DB1BF808100029F4D108E087
:1037C00008F1010188468142FADB1BF80810002944
:1037D000F6D1DDE90F23AAEB08008146214600F06F
:1037E00031F9304400EB080604E0DDE90F121BF864
:1037F000010B9047B8F10108F7D221464846F2E0A4
:103800000A21C4F302524FF0000B0891022A04D09F
:1038100001CFC117032A09D00AE0FF1D27F00707CF
:10382000F7E8020108E02CE01EE01FE000B2C1173B
:10383000042A01D140B2C117021E71F1000206DA5A
:103840000023D0EB030063EB01012D2202E02205EF
:1038500004D52B228DF82420012203E0E20701D0B9
:103860002022F7E7904653E00A210BE0102109E0FF
:1038700010214FF0000B44F004044FF008090891A8
:1038800003E008214FF0000B0891C4F30252022A12
:1038900004D001CF0021032A06D006E0FF1D27F047
:1038A0000707F7E8020103E080B2042A00D1C0B2A2
:1038B0004FF0000822072BD52A78702A07D0DDF8B0
:1038C00020C08CF0100C5CEA0B0C05D00EE04022FE
:1038D0008DF82420012208E050EA010306D03023AD
:1038E0008DF824308DF8252002229046089B83F025
:1038F000080353EA0B030BD150EA010201D162071E
:1039000006D530228DF824204FF00108A9F10109D5
:103910002A78582A04D038A20B9208AA0A920BE0FF
:103920003AA2F9E75B46089AFCF7B6FC0B9B9B5C56
:103930000A9A521E0A92137050EA0102F2D10A98B2
:10394000ADEB000000F1200B600702D524F48034B9
:1039500001E04FF00109D94502DDA9EB0B0000E0C1
:10396000002000EB0B0141440890AAEB010AE003A0
:1039700006D4DDE90F232146504600F063F80644E3
:103980004FF0000908E009A911F80900DDE90F125C
:10399000904709F10109761CC145F4DBE0030CD521
:1039A000DDE90F232146504600F04CF8064404E0C0
:1039B000DDE90F1230209047761C0899481E0890C8
:1039C0000029F5DC08E00A980A990078491C0A9158
:1039D000DDE90F129047761CBBF10001ABF1010B42
:1039E000F1DC21465046DDE90F2300F019F80644CA
:1039F0006D1C21E609280100303132333435363769
:103A0000383961626364656600000000303132332A
:103A100034353637383941424344454600000000CA
:103A20002DE9F041044600251E461746880404D4BB
:103A300005E039462020B0476D1C641EF9D52846A4
:103A4000BDE8F0812DE9F041044600251E46904670
:103A5000C80301D5302700E02027880404D505E0FD
:103A600041463846B0476D1C641EF9D52846BDE86E
:103A7000F081000010B504460420FEF705FA014865
:103A8000046010BD20000220F0B400284FF00006B2
:103A90009CBFF0BC70470D494FF47A724FF0E0259F
:103AA000096801FB02FC6C690023AA69A9699142BB
:103AB000FCD026BF671A3A44521A13440A4663459B
:103AC000F4D3761C8642EED3F0BC7047200002206F
:103AD0000C4930B44FF0E0240A680021D4F814C037
:103AE00000FB02F3A269A0699042FCD026BFACEBB8
:103AF00000052A44121A114402469942F3D330BCFD
:103B000070470000200002200349CA6912F0400FEC
:103B1000FBD0C2B28A6270470010014070B53B48CA
:103B20008021FDF7DCF93A4CA0886080207810F005
:103B3000010F08BF70BD617836A0FFF74BFD6078BC
:103B4000DFF8E8C000284DD1DCF8001038480A68DA
:103B500022F001020A60016811F0010FFBD1DCF8CC
:103B60000000344A4168A3680568C1F50060E66852
:103B700080B215F4002F06EB830117D068B35268AA
:103B800010F0010FA1F10401A2F1040203D052F8D8
:103B9000043F41F8043F43081FD055685B1E4D6049
:103BA00052F8085F41F8085FF7D116E0A8B1126833
:103BB00010F0010FA1F10401A2F1040203D052F8A8
:103BC000043F41F8043F430807D055685B1E4D6031
:103BD00052F8085F41F8085FF7D1A268012110444C
:103BE000A06061706078022818BF70BD4FF400615A
:103BF000DCF8002000205160DCF800100A6842F078
:103C000001020A606070A06070BD00000004024004
:103C1000000002206A7065675F646174615F6F6BAA
:103C20002069732025640D0A0000000064D302207F
:103C300028640240100002202DE9F041444804238A
:103C4000424C04F110020168A068D4F80CC0096865
:103C50000CEB800011F4002F28D01168B1EB000CA0
:103C600048BFA0EB010CBCF5005F03DA814218BF2E
:103C7000002104D14FF40052FCF7DCFA42E0166850
:103C800001F1020C03EB810500EB810756F821607E
:103C900040F821601FFA8CF1D2F800C0B1F5006F36
:103CA0005CF805C0C7F804C0E9D32BE05168A1EB6C
:103CB000000CBCF1FF3F46BFA0EB010CACF1010CC6
:103CC0000CF1010CBCF5005FD4DA01F1010C844564
:103CD00018BF0021CED000BF566801F1020C03EBE3
:103CE000810500EB810756F8216040F821601FFA3A
:103CF0008CF1D2F804C0B1F5006F5CF805C0C7F8CC
:103D000004C0E9D3A06800F50060A060114900205C
:103D10000860BFF34F8F081F43F6FF7500680E4918
:103D2000C0F34E3CC0F3C90405EA4C12204600BF64
:103D300042EA80730B60401EFAD2BCF1010CF3D250
:103D4000BFF34F8FBFF36F8FBDE8F08100000220FB
:103D500064D3022084ED00E074EF00E02DE9F0412F
:103D60004A4D86B04A4904204A4AA5F110042A6007
:103D700002F500626A6002F50062E2600860FCF72A
:103D80001BFBFDF7C3F8FFF79BF8A820FFF772FEB7
:103D90004FF4E13000F00CF93F48002702970397F9
:103DA0000497016841F00201016000680126DFF814
:103DB000EC80694600F0020005908020CDE9000605
:103DC0004046FCF75BFF00BFFEF730FD0028FBD14B
:103DD00033A0FFF7FFFB80214046FDF780F84FF44A
:103DE000FA70FCF73FFF80214046FDF778F8FEF7B8
:103DF0003DFEFEF7B7FD0020FEF7D4FD0320FEF7E1
:103E00004CFC0420FEF718FC0320FEF766FCFCF7D0
:103E1000A9FB26706770FEF7A5FD00214FF496639D
:103E200008464FF4C862FEF7B8FC4FF496614FF4B1
:103E3000C860FEF7EFFD204902231E489A02086081
:103E40000096D5E90001FCF727FB1C48FFF7C2FBF1
:103E5000FCF7B0FB60780128FCD1A0680025854202
:103E600009D2E06850F825101548FFF7B3FBA068A9
:103E70006D1C8542F5D31348FFF7ACFB0220607040
:103E8000FCF7A8FB06B00020BDE8F081100002207E
:103E90009CEF00E0DC0102203038024000040240C8
:103EA0006F763236343020696E6974206F766572B1
:103EB0000D0A0000393C000830000220583F00087D
:103EC000743F0008783F000838B5204C01250020D9
:103ED00025706070FEF746FD00214FF4966308469A
:103EE0004FF4C862FEF759FC4FF496614FF4C86076
:103EF000FEF790FD1749022315489A02086004F165
:103F000010000095D0E90001FCF7C6FA12A0FFF7F7
:103F100061FBFCF74FFB60780128FCD1A06800250D
:103F2000854209D2E06850F8251012A0FFF752FB35
:103F3000A0686D1C8542F5D30FA0FFF74BFB022054
:103F40006070FCF747FB002038BD00000000022035
:103F5000393C0008300002204A70656720446174D3
:103F60006120617320666F6C6C6F7773203A0D0A65
:103F700000000000257800000D0A2D2D2D2D2D2D7F
:103F80002D2D2D2D2D2D2D2D2D2D2D2D2D2D2D2D61
:103F90002D2D2D2D2D2D2D2D2D2D2D2D2D2D2D2D51
:103FA0002D2D2D2D2D2D2D2D2D0D0A000068704746
:103FB0000A490022DFF820C00C23C1F800C0C1E983
:103FC0000102CA6008460A61C1E90532CA610A6293
:103FD0004A62FEF7FBB9000000100140A4D20220A3
:103FE00070B596B0064614AB01AA04A900F044FAD5
:103FF00000281CBF16B070BD0020244C8DF80800AE
:10400000207D002888BF04251DD900BF9DF8081019
:1040100014AB20686A4605EBC10140580CA900F0BA
:104020002BFA00281CBF16B070BD04A90CA800F024
:10403000CAFDF0B19DF80800401CC0B28DF8080020
:10404000217D8142E2D89DF80800217D814202BF96
:10405000042016B070BD02A9304600F0E9FA00282D
:104060001CBF16B070BD9DF80800607516B000202A
:1040700070BD9DF800009DF8041088428EBF02209C
:104080009DF80800A075DED916B070BDE8000220CA
:104090002DE9F0439D4D9BB0AE7D287DB0429CBF85
:1040A0001BB0BDE8F083042019AB00EBC600296803
:1040B00010AA085811A900F0DFF911A994A0FFF780
:1040C00089FA9DF840000024002884BF4FF00109C0
:1040D0000DF1180839D9298B09FA04F0014218D0DA
:1040E00022218DA0FFF776FA204600F029FC284413
:1040F00000F1240189A0FFF76DFA222186A0FFF7C5
:1041000069FA204600F01CFC2844243048F82400BA
:104110000DE0204600F014FC2844416A48F82410C1
:10412000E87D002814BF7EA07FA0FFF753FA9DF81A
:104130004000401E84421CBF7CA0FFF74BFA601C6D
:104140009DF84010C4B28C42C5D379A0FFF742FA63
:1041500078486FF00103190C0022D0F800C0CCF8A9
:1041600010300368D962C16000684262C5F8F0206F
:10417000687D0B2878D2DFE800F0060B121A232D99
:10418000394656657800286850F8360080476AE05E
:10419000286800EBC60106980968884763E028682C
:1041A00000EBC602DDE90601126890475BE0286873
:1041B000089A00EBC603DDE906011B68984752E048
:1041C000286806AC00EBC60C94E80F00DCF800C0D1
:1041D000E04748E00A9806AC0090286800EBC60C5F
:1041E00094E80F00DCF800C0E0473CE0DDE90A019C
:1041F000DDE90823CDE90001286850F836C0DDE983
:104200000601E0472FE0DDE90A010C9A06AC0292B4
:10421000CDE90001286800EBC60C94E80F00DCF83B
:1042200000C0E0471FE00AAC94E80F0006AC8DE840
:104230000F00286800EBC60C94E80F00DCF800C003
:10424000E04710E00BAC94E80F0001AC84E80F00ED
:104250000A9806AC0090286800EBC60C94E80F00A2
:10426000DCF800C0E047074613E00CAC94E80F0010
:1042700002AC84E80F00DDE90A0106ACCDE90001DB
:10428000286800EBC60C94E80F00DCF800C0E0479B
:10429000074628480068016911F0010F06D0D5F8DB
:1042A000F0204FF6FF711144C5F8F010406AD5F8C0
:1042B000F0100844C5F8F0009DF8640001281BD0F8
:1042C0001DA0FFF787F900BF95F8EC00002804BF98
:1042D0001BB0BDE8F0831949D5F8F000A1FB00211F
:1042E000C9084A4202EB820200EB420214A0FFF727
:1042F00071F91BB0BDE8F083E87D3946002814BF92
:1043000017A01AA0FFF766F9DEE70000E800022018
:104310000D0A2573280000002563000025730000A6
:104320003058255800000000256C64002C00000067
:104330002900000000D402203B0D0A00CDCCCCCCDB
:1043400046756E6374696F6E2052756E2054696D88
:10435000653A25642E2531646D730D0A0000000056
:104360003D305825583B0D0A000000003D256C7576
:104370003B0D0A00F0B4002425462646A4460378E7
:104380002C2B06D0292B14BF002BBCF1000F37D0EB
:1043900003E0BCF1000F08BF012526B1222B2CD071
:1043A000002D33D02CE0A3F13007092F18D92D2B85
:1043B00018BF2B2B14D0A3F16107052F84BFA3F1E5
:1043C0004107052F0CD9582B18BF782B08D0222B6A
:1043D0000DD0202B18BF2C2B23D04FF0FF060FE061
:1043E00075B9612B28BF203B01F8013B19E0002D76
:1043F00004BF0126B44603D113E04FF0000C85B191
:104400000020087020461670F0BC7047BCF1000F09
:1044100007D05C2B02D1631C401CDCB2037801F88E
:10442000013B631C401CDCB2A9E700004DF8044DC1
:104430000024147011E000BF01F801CB92F800C015
:10444000401C0CF1010C0CF0FF0C82F800C09C45E4
:1044500003D35DF8044B0120704790F800C0BCF115
:10446000200F18BFBCF1000FE6D10C704FF0000018
:104470005DF8044B704700002DE9FF4F04784FF0C2
:10448000000A82B00646002CEE465246D4465446F8
:104490004FF00109D346554633D03778202F1CBF43
:1044A00005F07F08B8F1050F0ED2002D08BF80255A
:1044B00005F07F08B8F1040F01D12A2F0AD16D1C35
:1044C0000EF80870EDB201E0852D04D016F8017FDA
:1044D000002FE2D1ADB105F07F0576460EF805A0BC
:1044E00051A5377895F80080474502D001251D7009
:1044F00006E0002F1CBF6D1C761CF2D183F800A0D3
:1045000000250027064618E016F8013F7F1C202BE7
:10451000FFB214BF2A2B731C0FD100BF93F8008089
:10452000B8F1200F03D1002B18BF5B1CF6D108F0A7
:10453000FF03282B1CBF2A2BBC463378282B18BF1F
:10454000002BE1D1BCF1000F06461CBF6044461CA5
:10455000002084463378FBB1282B04D0292B08D0C7
:10456000222B1DD008E0BCF1000F04BF521CD2B2B8
:1045700002E0BCF1000F08D0D2B12C2B1DD0202BB3
:1045800018BF282B2BD035BB1CE02AB1A2F10102A9
:1045900012F0FF0201D0F6E70120012C2CD03BE005
:1045A000BCF1000F14BF4FF0000C4FF0010CE3E71B
:1045B000202B18BF01F8013B1BE06B1C4FF00109D9
:1045C000DDB20CE0BBF1050F05D20BF101070EF8CF
:1045D0000B3007F0FF0B09F1010303F0FF09012A7B
:1045E00008BFB9F1020F04D104F101034FF0030930
:1045F000DCB206F10106ADE70BA273460EF80BA084
:1046000093F800C01578AC4506D1BCF1000F1CBF73
:10461000521C5B1CF4D10024049A147081F800A091
:1046200006B0BDE8F08F0000766F696400000000FE
:104630002DE9F34F00240546BF48B5B0FEF7DAFF79
:104640002878282805D000BF15F8010FD0B12828F8
:10465000FAD1BA4F05F101084FF0040E4FF0010BEB
:10466000002369460DF1CC0942461D461E469C4674
:1046700010782C280BD0292814BF0028BCF1000F7B
:104680003CD008E037B04FF00100BDE8F08FBCF13E
:10469000000F08BF01252EB1222808BF4FF0000CE3
:1046A000FDB93CE0A0F1300ABAF1090F1AD92D2862
:1046B00018BF2B2816D0A0F1610ABAF1050F84BFEC
:1046C000A0F1410ABAF1050F0CD9582818BF782873
:1046D00008D022280DD0202818BF2C282AD04FF02F
:1046E000FF060BE055B9612828BF203801F8010BFF
:1046F00020E0002D04BF0126B4461BD00020087026
:1047000089F8006098449DF8CC00B8B1012804BF36
:10471000684600217ED0FF2854D000F0FFB8BCF1DD
:10472000000F07D05C2802D1581C521CC3B210786D
:1047300001F8010B581C521CC3B299E79DF8000008
:10474000002800F0EB8000206A460A211346064646
:1047500084461D78A5F13009B9F1090F15D992F8F1
:104760000090B9F12D0F17BFB9F12B0F0028A5F15B
:104770004109B9F1050F08D9582D03D015F0FF0FE5
:1047800014D01FE001281DD101E0412D00D31021DC
:1047900015782D2D08BF022605D02B2D0EBF012622
:1047A000401CC0B200D1521C5B1CD2E7102901D0C2
:1047B00040B112E0032824BF1378302B04BF537894
:1047C000582B04D037B04FF00200BDE8F08FA0F1B5
:1047D000020002F10202C0B210B1A0F10100C0B2A9
:1047E0001378A3F13005092D94BFA946A3F1370929
:1047F000451E012300280FDD15F0010F08BF0B46F1
:104800006D1C6D1008D000BF03FB01F36D1E03FB90
:1048100001F300E03CE0F7D112F8015F09FB03CCA3
:10482000002DD9D1022E08BFCCF1000C0020621E51
:10483000002A16DD14F0010F07F1190108BF11F865
:10484000010F52104FF000034D7808D08E782844A5
:10485000CD78891C3344521EC0B2DBB2F6D1184465
:10486000C0B2611E03D43944897E0844C0B2611CC1
:10487000C2190BFA04F0C2F824C03A193B8BCCB22F
:104880000A2C23EA0000388382F81AE042D845E077
:1048900002781AB1491C401CC9B2F9E7481C6A46A3
:1048A00000F0FF090020631E002B17DD14F0010F3C
:1048B00007F1190108BF11F8010F5B104FF0000C50
:1048C0004D7809D08E782844CD78891CB4445B1E7D
:1048D0000CF0FF0CC0B2F5D16044C0B2611E03D42D
:1048E0003944897E0844C0B23844243011780170BC
:1048F000117800291CBF401C521CF7D1621C388B58
:104900000BFA04F3391918433883D4B20A2C81F80E
:104910001A9003D937B00320BDE8F08F98F8000053
:10492000292818BF00287FF49BAE3698047037B052
:104930004FF00000BDE8F08F02010220E8000220E5
:1049400070B40546134E00206A1E002A18DD15F0CB
:10495000010F06F1190108BF11F8010F52104FF0B5
:10496000000391F801C009D08C78604491F803C02D
:10497000891C2344521EC0B2DBB2F5D11844C0B228
:10498000691E44BF70BC70473144897E70BC0844C6
:10499000C0B27047E800022000EBC0024FF0FF31C8
:1049A00002EB001038B501EB800085B211484FF4DE
:1049B0007A74016841F00401016000680322114625
:1049C00000F0040000901E20FCF7D4FA1E20FCF733
:1049D000C4FA0A480021084AC0E902140161C0E98A
:1049E0000025FDF773FA0548FDF7A0FA04490120F8
:1049F000C87538BD403802400008004000D402208D
:104A0000E80002202DE9F041184D288810F4004FED
:104A100008BFBDE8F08100261549C0B2154F0E54FD
:104A2000B96813488847040017D0114800F0D8F837
:104A3000012801D0040015D0012C08BF0EA00FD012
:104A4000022C08BF0FA00BD0032C08BF10A007D06A
:104A5000042C08BF11A003D004E0F868804701E0EF
:104A6000FEF7B8FD2E80BDE8F08100002400022092
:104A7000DCD10220E8000220BAAFCAFDB4EDCEF3CB
:104A8000210D0A00B2CECAFDB4EDCEF3210D0A000D
:104A9000B2CECAFDCCABB6E0210D0A00CEB4D5D261
:104AA000B5BDC6A5C5E4B5C4BAAFCAFD210D0A009F
:104AB0002DE9F0014FF0000C03460A2562466646D8
:104AC000C1F800C093F800C0ACF13004092C15D92E
:104AD00004782D2C17BF2B2C002AACF14104052C97
:104AE0000CD9BCF1580F06D01CF0FF0F1BD0BDE84D
:104AF000F00101207047012AF9D102E0BCF1410F19
:104B000000D3102590F800C0BCF12D0F08BF02267D
:104B100006D0BCF12B0F0EBF0126521CD2B200D121
:104B2000401C5B1CCEE7102D06D0002A02BF0420DB
:104B3000BDE8F001704715E0032A3EBF0220BDE842
:104B4000F00170470378302B07BF4378582B0320C0
:104B5000BDE8F00118BF7047A2F1020200F10200A7
:104B6000D2B212B1A2F10102D2B20378A3F1300C99
:104B7000BCF1090F94BF6746A3F137072B46541EBB
:104B80004FF0010C002A0DDD14F0010F08BFAC46F8
:104B9000641C641006D000BF0CFB03FC641E0CFBFD
:104BA00003FCF9D10B6807FB0C330B6010F801CF45
:104BB000BCF1000FD5D1022E04BF5842086000207E
:104BC000BDE8F001704702780B789A4201D00120CD
:104BD0007047002A1CBF401C491CF4D100207047BC
:104BE000F0B58DB005461E236A4601A9FFF71EFCED
:104BF0000028099040F0D9829DF800000026404C22
:104C00002F188DF8006000BF9DF8000054F82010A8
:104C100001A8FFF7D8FF38B19DF80000401CC0B2D2
:104C20008DF800000728EFD39DF800000425354CCF
:104C3000072880F0BA82DFE800F00404395B616085
:104C40005F0031A0FEF7C6FC30A0FEF7C3FC3FA01A
:104C5000FEF7C0FC4DA0FEF7BDFC5CA0FEF7BAFC61
:104C60006AA0FEF7B7FC79A0FEF7B4FC86A0FEF7B9
:104C7000B1FC8CA0FEF7AEFC93A0FEF7ABFC98A0B5
:104C8000FEF7A8FC9CA0FEF7A5FCA2A0FEF7A2FCE4
:104C9000A7A0FEF79FFCB4A0FEF79CFCC0A0FEF707
:104CA00099FCCCA0FEF796FCD7A01EE016A0FEF75C
:104CB00091FCE5A0FEF78EFC8DF80060207D0028B9
:104CC00012D900BF9DF80000216805EBC00009580B
:104CD000EDA0FEF77FFC9DF80000401CC0B28DF8EF
:104CE0000000217D8142EDD807A0FEF773FCF8E1BA
:104CF00005A0FEF76FFCCBE137E215E2F4E100001E
:104D000034000220E80002200D0A00002D2D2D2D78
:104D10002D2D2D2D2D2D2D2D2D2D2D2D2D2D2D2DC3
:104D20002D2D2D2D55534D4152542056332E332DBC
:104D30002D2D2D2D2D2D2D2D2D2D2D2D2D2D2D2DA3
:104D40002D2D2D2D2D2D2D200D0A00002020202071
:104D500055534D415254CAC7D3C9414C49454E548D
:104D6000454BBFAAB7A2B5C4D2BBB8F6C1E9C7C903
:104D7000B5C4B4AEBFDAB5F7CAD4BBA5BDBBD7E9DD
:104D8000BCFE2CCDA8B9FD200D0A0000CBFC2CC424
:104D9000E3BFC9D2D4CDA8B9FDB4AEBFDAD6FACA42
:104DA000D6B5F7D3C3B3CCD0F2C0EFC3E6B5C4C811
:104DB000CEBACEBAAFCAFD2CB2A2D6B4D0D02ED2C3
:104DC000F2B4CB2CC4E3BFC90D0A0000D2D4CBE6A9
:104DD000D2E2B8FCB8C4BAAFCAFDB5C4CAE4C8EBE5
:104DE000B2CECAFD28D6A7B3D6CAFDD7D628313051
:104DF0002F3136BDF8D6C62CD6A7B3D6B8BACAFD61
:104E000029A1A2D7D6B7FBB4AE0D0A00A1A2BAAFB2
:104E1000CAFDC8EBBFDAB5D8D6B7B5C8D7F7CEAAA2
:104E2000B2CECAFD292CB5A5B8F6BAAFCAFDD7EEE9
:104E3000B6E0D6A7B3D63130B8F6CAE4C8EBB2CEE6
:104E4000CAFD2CB2A2D6A7B3D60D0A00BAAFCAFDCE
:104E5000B7B5BBD8D6B5CFD4CABE2ED6A7B3D6B2B7
:104E6000CECAFDCFD4CABEBDF8D6C6C9E8D6C3B92E
:104E7000A6C4DC2CD6A7B3D6BDF8D6C6D7AABBBB72
:104E8000B9A6C4DC2E0D0A00BCBCCAF5D6A7B3D6A1
:104E90003A7777772E6F70656E6564762E636F6DE7
:104EA0000D0A000055534D415254D3D037B8F6CFB8
:104EB000B5CDB3C3FCC1EE28B1D8D0EBD0A1D0B4EE
:104EC000293A0D0A000000003F3A2020202020202F
:104ED000BBF1C8A1B0EFD6FAD0C5CFA20D0A000031
:104EE00068656C703A202020BBF1C8A1B0EFD6FAFB
:104EF000D0C5CFA20D0A00006C6973743A2020203F
:104F0000BFC9D3C3B5C4BAAFCAFDC1D0B1ED0D0A94
:104F10000A00000069643A2020202020BFC9D3C3C2
:104F2000BAAFCAFDB5C44944C1D0B1ED0D0A0A00FB
:104F30006865783A20202020B2CECAFD3136BDF80F
:104F4000D6C6CFD4CABE2CBAF3B8FABFD5B8F12BA7
:104F5000CAFDD7D6BCB4D6B4D0D0BDF8D6C6D7AA71
:104F6000BBBB0D0A0A0000006465633A20202020C4
:104F7000B2CECAFD3130BDF8D6C6CFD4CABE2CBA27
:104F8000F3B8FABFD5B8F12BCAFDD7D6BCB4D6B4A6
:104F9000D0D0BDF8D6C6D7AABBBB0D0A0A00000008
:104FA00072756E74696D653A312CBFAAC6F4BAAFDA
:104FB000CAFDD4CBD0D0BCC6CAB13B302CB9D8B115
:104FC000D5BAAFCAFDD4CBD0D0BCC6CAB13B0D0A4E
:104FD0000A000000C7EBB0B4D5D5B3CCD0F2B1E035
:104FE000D0B4B8F1CABDCAE4C8EBBAAFCAFDC3FBBE
:104FF000BCB0B2CECAFDB2A2D2D4BBD8B3B5BCFC51
:10500000BDE1CAF82E0D0A002D2D2D2D2D2D2D2D93
:105010002D2D2D2D2D2D2D2D2D2D2D2D2D2D2D2DC0
:105020002D2D414C49454E54454B2D2D2D2D2D2DCB
:105030002D2D2D2D2D2D2D2D2D2D2D2D2D2D2D2DA0
:105040002D2D2D200D0A00002D2D2D2D2D2D2D2D3A
:105050002D2D2D2D2D2D2D2D2D2D2D2D2D2D2D2D80
:105060002DBAAFCAFDC7E5B5A52D2D2D2D2D2D2DA2
:105070002D2D2D2D2D2D2D2D2D2D2D2D2D2D2D2D60
:105080002D2D2D2D200D0A0025730D0A0000000086
:1050900047A0FEF79FFA8DF80060207D00281CD9FC
:1050A0009DF800000BAB21680AAA05EBC000085868
:1050B00001A9FFF7E1F99DF80000216851F83020BF
:1050C00001A94BA0FEF786FA9DF80000401CC0B273
:1050D0008DF80000217D8142E2D8AFF2D430FEF796
:1050E00079FA0DB00020F0BDAFF2E430FEF772FAAD
:1050F00001A96A463846FFF73DF99DF800000028EF
:1051000045D109A901A8FFF7D3FC00288DF80000BC
:1051100004BF09993BA020D0042838D13CA0FEF759
:1051200059FA0120E075D8E738A0FEF753FA01A933
:105130006A463846FFF71EF99DF8000038BB09A9FA
:1051400001A8FFF7B5FC00288DF8000004BF0999FD
:1051500034A002D0042803D019E0FEF73BFABCE7E4
:1051600033A0FEF737FAE675B7E728A0FEF732FA64
:1051700001A96A463846FFF7FDF89DF8000030B9EE
:1051800009A901A8FFF794FC8DF8000010B10DB03B
:105190000220F0BD099810F0FF0084F8EC0014BF65
:1051A00028A02FA0FEF716FA97E70DB00120F0BD5A
:1051B0002D2D2D2D2D2D2D2D2D2D2D2D2D2D2D2D1F
:1051C0002D2D2D2D2D2D2D2D2DBAAFCAFD2049446D
:1051D000202D2D2D2D2D2D2D2D2D2D2D2D2D2D2D0C
:1051E0002D2D2D2D2D2D2D2D2D2D2D2D200D0A006C
:1051F00025732069642069733A0D0A3058253038C8
:10520000580D0A004845583A305825580D0A0000F4
:105210003136BDF8D6C6B2CECAFDCFD4CABE210D36
:105220000A0000004445433A256C750D0A00000051
:105230003130BDF8D6C6B2CECAFDCFD4CABE210D1C
:105240000A00000052756E2054696D652043616C40
:1052500063756C6174696F6E204F4E0D0A0000001B
:1052600052756E2054696D652043616C63756C6185
:1052700074696F6E204F46460D0A0000016070474A
:1052800000000000000000000102030406070809F6
:1052900000000000010203040006101600061016AC
:1052A000FF002CFF2EDFFF013C321100090204D861
:1052B00013E514482C0C33783A333BFB3E00431182
:1052C0001610399235DA221A37C3230034C0361A41
:1052D000068807C00D870E414C0048005B00420362
:1052E0004A8121992440253826825C0063004600CB
:1052F0000C3C617062807C05208028306C006D80E1
:105300006E007002719473C13D345A571200171128
:10531000187519011A973236030F37404FCA50A833
:105320005A236D006D38FF00E57FF9C04124E01479
:1053300076FF33A0422043184C0087D5883FD7031F
:10534000D910D382C808C9807C007D007C037D48C9
:105350007D487C087D207D107D0E9000910E911A75
:105360009131915A91699175917E9188918F919621
:1053700091A391AF91C491D791E8912092009306A7
:1053800093E3930593059300930493009300930094
:105390009300930093009300960097089719970243
:1053A000970C97249730972897269702979897807D
:1053B00097009700C3EFA400A800C511C651BF8095
:1053C000C710B666B8A5B764B97CB3AFB497B5FFDC
:1053D000B0C5B194B20FC45CC0C8C1968C00863D04
:1053E00050005190522C5300540055885A905B2C19
:1053F0005C05D37FC3ED7F00DA09E51FE167E000BC
:10540000DD7F0500FF01E014E177E51FD703DA1027
:10541000E000FF00DA09D703DF0233A03C00E167B8
:10542000FF01E000E100E500D700DA00E000FF0046
:10543000DA10D703DF0033803C40E1770000FF0142
:10544000242025182660FF012434251C2600FF0196
:10545000243E25382681FF01244825402681FF016E
:1054600024582550269200003F0000006465630028
:105470006964000072756E74696D650068656C70B2
:10548000000000006C69737400000000686578001B
:10549000753820534343425F57525F526567287502
:1054A00038207265672C75382064617461290000AA
:1054B000766F69642044434D495F43525F5365747E
:1054C0002875382070636C6B2C7538206873796E82
:1054D000632C7538207673796E632900766F696462
:1054E000204F56323634305F5247423536355F4DA5
:1054F0006F646528766F696429000000766F6964BF
:10550000204F56323634305F4A5045475F4D6F6406
:105510006528766F696429004F56323634305F4C07
:10552000696768745F4D6F6465287538206D6F64B6
:1055300065290000753820534343425F52445F524F
:10554000656728753820726567290000766F696481
:105550002077726974655F616464722875333220E4
:10556000616464722C7533322076616C290000000E
:10557000766F6964204F56323634305F4175746FF0
:105580005F4578706F73757265287538206C657625
:10559000656C290075333220726561645F616464F3
:1055A000722875333220616464722900766F6964F1
:1055B000204F56323634305F436F6C6F725F5361E9
:1055C0007475726174696F6E2875382073617429FF
:1055D00000000000766F6964204F56323634305F29
:1055E0005370656369616C5F4566666563747328B3
:1055F00075382065667429007538204F5632363468
:10560000305F496D61676553697A655F53657428DA
:105610007531362077696474682C75313620686579
:1056200069676874290000007538204F5632363497
:10563000305F4F757453697A655F536574287531AF
:10564000362077696474682C75313620686569671F
:10565000687429007538204F56323634305F496DF2
:1056600061676557696E5F53657428753136206FC1
:105670006666782C753136206F6666792C75313602
:105680002077696474682C753136206865696768AD
:1056900074290000766F6964204F56323634305FCB
:1056A00057696E646F775F53657428753136207360
:1056B000782C7531362073792C75313620776964F2
:1056C00074682C7531362068656967687429000034
:1056D000766F69642044434D495F5365745F576931
:1056E0006E646F77287531362073782C75313620CB
:1056F00073792C7531362077696474682C7531366E
:10570000206865696768742900000000766F696425
:10571000204F56323634305F4272696768746E6566
:1057200073732875382062726967687429000000F5
:10573000766F6964204F56323634305F436F6E7433
:105740007261737428753820636F6E74726173743C
:1057500029000000766F6964204F56323634305F7E
:10576000436F6C6F725F42617228753820737729BE
:10577000000000009457000800000220DC01000037
:105780005E03000848580008DC01022064D60000CF
:105790000E360008021801031924F41368541B087C
:1057A0007C041A84041A70041A8C041A6C041A7487
:1057B0000413AD3F1408945514087D521B084C087F
:1057C000130D2E1B08901813CD2B1B083410133506
:1057D000041B08B01013B1051408D0561C0811267C
:1057E00044191813A5291B0818081A9B101AAC088D
:1057F0001A3908130C571B08DB081A300813912AB2
:105800001B08D4181A73101A54101A01501A944015
:105810001A15181A28081B9B271819081A4D081A58
:10582000F8281A65501AFC681A6D201ADC08125004
:1058300015022099491B08E1A01391401408054A5C
:0858400023081302DC01000043
:04000005080001F9F5
:00000001FF
